{
  "_format": "hh-sol-artifact-1",
  "contractName": "SimpleSwap",
  "sourceName": "contracts/SimpleSwap.sol",
  "abi": [
    {
      "inputs": [
        {
          "internalType": "address",
          "name": "_token",
          "type": "address"
        },
        {
          "internalType": "uint256",
          "name": "_initialRate",
          "type": "uint256"
        }
      ],
      "stateMutability": "nonpayable",
      "type": "constructor"
    },
    {
      "anonymous": false,
      "inputs": [
        {
          "indexed": true,
          "internalType": "address",
          "name": "provider",
          "type": "address"
        },
        {
          "indexed": false,
          "internalType": "uint256",
          "name": "kdaAmount",
          "type": "uint256"
        },
        {
          "indexed": false,
          "internalType": "uint256",
          "name": "tokenAmount",
          "type": "uint256"
        }
      ],
      "name": "LiquidityAdded",
      "type": "event"
    },
    {
      "anonymous": false,
      "inputs": [
        {
          "indexed": true,
          "internalType": "address",
          "name": "previousOwner",
          "type": "address"
        },
        {
          "indexed": true,
          "internalType": "address",
          "name": "newOwner",
          "type": "address"
        }
      ],
      "name": "OwnershipTransferred",
      "type": "event"
    },
    {
      "anonymous": false,
      "inputs": [
        {
          "indexed": false,
          "internalType": "uint256",
          "name": "oldRate",
          "type": "uint256"
        },
        {
          "indexed": false,
          "internalType": "uint256",
          "name": "newRate",
          "type": "uint256"
        }
      ],
      "name": "RateUpdated",
      "type": "event"
    },
    {
      "anonymous": false,
      "inputs": [
        {
          "indexed": true,
          "internalType": "address",
          "name": "user",
          "type": "address"
        },
        {
          "indexed": false,
          "internalType": "uint256",
          "name": "kdaAmount",
          "type": "uint256"
        },
        {
          "indexed": false,
          "internalType": "uint256",
          "name": "tokenAmount",
          "type": "uint256"
        },
        {
          "indexed": false,
          "internalType": "uint256",
          "name": "newRate",
          "type": "uint256"
        }
      ],
      "name": "SwapExecuted",
      "type": "event"
    },
    {
      "inputs": [
        {
          "internalType": "uint256",
          "name": "_tokenAmount",
          "type": "uint256"
        }
      ],
      "name": "addLiquidity",
      "outputs": [],
      "stateMutability": "payable",
      "type": "function"
    },
    {
      "inputs": [],
      "name": "emergencyWithdraw",
      "outputs": [],
      "stateMutability": "nonpayable",
      "type": "function"
    },
    {
      "inputs": [],
      "name": "getBalances",
      "outputs": [
        {
          "internalType": "uint256",
          "name": "kdaBalance",
          "type": "uint256"
        },
        {
          "internalType": "uint256",
          "name": "tokenBalance",
          "type": "uint256"
        }
      ],
      "stateMutability": "view",
      "type": "function"
    },
    {
      "inputs": [],
      "name": "getRate",
      "outputs": [
        {
          "internalType": "uint256",
          "name": "",
          "type": "uint256"
        }
      ],
      "stateMutability": "view",
      "type": "function"
    },
    {
      "inputs": [
        {
          "internalType": "uint256",
          "name": "_tokenAmount",
          "type": "uint256"
        }
      ],
      "name": "getReverseSwapQuote",
      "outputs": [
        {
          "internalType": "uint256",
          "name": "kdaAmount",
          "type": "uint256"
        }
      ],
      "stateMutability": "view",
      "type": "function"
    },
    {
      "inputs": [
        {
          "internalType": "uint256",
          "name": "_kdaAmount",
          "type": "uint256"
        }
      ],
      "name": "getSwapQuote",
      "outputs": [
        {
          "internalType": "uint256",
          "name": "tokenAmount",
          "type": "uint256"
        }
      ],
      "stateMutability": "view",
      "type": "function"
    },
    {
      "inputs": [],
      "name": "owner",
      "outputs": [
        {
          "internalType": "address",
          "name": "",
          "type": "address"
        }
      ],
      "stateMutability": "view",
      "type": "function"
    },
    {
      "inputs": [],
      "name": "rate",
      "outputs": [
        {
          "internalType": "uint256",
          "name": "",
          "type": "uint256"
        }
      ],
      "stateMutability": "view",
      "type": "function"
    },
    {
      "inputs": [],
      "name": "renounceOwnership",
      "outputs": [],
      "stateMutability": "nonpayable",
      "type": "function"
    },
    {
      "inputs": [],
      "name": "swap",
      "outputs": [],
      "stateMutability": "payable",
      "type": "function"
    },
    {
      "inputs": [
        {
          "internalType": "uint256",
          "name": "_tokenAmount",
          "type": "uint256"
        }
      ],
      "name": "swapTokensForKDA",
      "outputs": [],
      "stateMutability": "nonpayable",
      "type": "function"
    },
    {
      "inputs": [],
      "name": "token",
      "outputs": [
        {
          "internalType": "contract IERC20",
          "name": "",
          "type": "address"
        }
      ],
      "stateMutability": "view",
      "type": "function"
    },
    {
      "inputs": [],
      "name": "totalLiquidity",
      "outputs": [
        {
          "internalType": "uint256",
          "name": "",
          "type": "uint256"
        }
      ],
      "stateMutability": "view",
      "type": "function"
    },
    {
      "inputs": [],
      "name": "totalSwapped",
      "outputs": [
        {
          "internalType": "uint256",
          "name": "",
          "type": "uint256"
        }
      ],
      "stateMutability": "view",
      "type": "function"
    },
    {
      "inputs": [
        {
          "internalType": "address",
          "name": "newOwner",
          "type": "address"
        }
      ],
      "name": "transferOwnership",
      "outputs": [],
      "stateMutability": "nonpayable",
      "type": "function"
    },
    {
      "inputs": [
        {
          "internalType": "uint256",
          "name": "_newRate",
          "type": "uint256"
        }
      ],
      "name": "updateRate",
      "outputs": [],
      "stateMutability": "nonpayable",
      "type": "function"
    },
    {
      "stateMutability": "payable",
      "type": "receive"
    }
  ],
  "bytecode": "0x608060405234801561001057600080fd5b5060405161103338038061103383398101604081905261002f916100b5565b61003833610065565b60018055600280546001600160a01b0319166001600160a01b0393909316929092179091556003556100ef565b600080546001600160a01b038381166001600160a01b0319831681178455604051919092169283917f8be0079c531659141344cd1fd0a4f28419497f9722a3daafe3b4186f6b6457e09190a35050565b600080604083850312156100c857600080fd5b82516001600160a01b03811681146100df57600080fd5b6020939093015192949293505050565b610f35806100fe6000396000f3fe6080604052600436106100f65760003560e01c8063715018a61161008a578063d8501f4f11610059578063d8501f4f14610264578063db2e21bc1461027a578063f2fde38b1461028f578063fc0c546a146102af57600080fd5b8063715018a6146101f55780638119c0651461020a5780638da5cb5b14610212578063cc69b11e1461024457600080fd5b806351c6590a116100c657806351c6590a1461018d57806352f057d5146101a0578063679aefce146101c057806369ea1771146101d557600080fd5b8062113e081461010257806315770f92146101315780632c4e722e146101555780632eb4426c1461016b57600080fd5b366100fd57005b600080fd5b34801561010e57600080fd5b506101176102cf565b604080519283526020830191909152015b60405180910390f35b34801561013d57600080fd5b5061014760055481565b604051908152602001610128565b34801561016157600080fd5b5061014760035481565b34801561017757600080fd5b5061018b610186366004610e19565b610348565b005b61018b61019b366004610e19565b6105d1565b3480156101ac57600080fd5b506101476101bb366004610e19565b610803565b3480156101cc57600080fd5b50600354610147565b3480156101e157600080fd5b5061018b6101f0366004610e19565b61082c565b34801561020157600080fd5b5061018b6108c9565b61018b6108dd565b34801561021e57600080fd5b506000546001600160a01b03165b6040516001600160a01b039091168152602001610128565b34801561025057600080fd5b5061014761025f366004610e19565b610b38565b34801561027057600080fd5b5061014760045481565b34801561028657600080fd5b5061018b610b50565b34801561029b57600080fd5b5061018b6102aa366004610e32565b610ca0565b3480156102bb57600080fd5b5060025461022c906001600160a01b031681565b6002546040516370a0823160e01b8152306004820152600091829147916001600160a01b0316906370a0823190602401602060405180830381865afa15801561031c573d6000803e3d6000fd5b505050506040513d601f19601f820116820180604052508101906103409190610e62565b915091509091565b610350610d16565b600081116103a55760405162461bcd60e51b815260206004820152601d60248201527f416d6f756e74206d7573742062652067726561746572207468616e203000000060448201526064015b60405180910390fd5b6002546040516370a0823160e01b815233600482015282916001600160a01b0316906370a0823190602401602060405180830381865afa1580156103ed573d6000803e3d6000fd5b505050506040513d601f19601f820116820180604052508101906104119190610e62565b101561045f5760405162461bcd60e51b815260206004820152601a60248201527f496e73756666696369656e7420746f6b656e2062616c616e6365000000000000604482015260640161039c565b60035460009061047783670de0b6b3a7640000610e91565b6104819190610ea8565b9050804710156104d35760405162461bcd60e51b815260206004820152601a60248201527f496e73756666696369656e74204b4441206c6971756964697479000000000000604482015260640161039c565b6002546040516323b872dd60e01b8152336004820152306024820152604481018490526001600160a01b03909116906323b872dd906064016020604051808303816000875af115801561052a573d6000803e3d6000fd5b505050506040513d601f19601f8201168201806040525081019061054e9190610eca565b50604051339082156108fc029083906000818181858888f1935050505015801561057c573d6000803e3d6000fd5b5060035460408051838152602081018590529081019190915233907fe3a277e9dc82afe4d40533f81d7299e0d9ca6d4ed93e2bbe5d94a93eaf0a5b5f9060600160405180910390a2506105ce60018055565b50565b6105d9610d16565b600034116106225760405162461bcd60e51b815260206004820152601660248201527553656e64204b444120666f72206c697175696469747960501b604482015260640161039c565b600081116106725760405162461bcd60e51b815260206004820152601960248201527f53656e6420746f6b656e7320666f72206c697175696469747900000000000000604482015260640161039c565b6002546040516370a0823160e01b815233600482015282916001600160a01b0316906370a0823190602401602060405180830381865afa1580156106ba573d6000803e3d6000fd5b505050506040513d601f19601f820116820180604052508101906106de9190610e62565b101561072c5760405162461bcd60e51b815260206004820152601a60248201527f496e73756666696369656e7420746f6b656e2062616c616e6365000000000000604482015260640161039c565b6002546040516323b872dd60e01b8152336004820152306024820152604481018390526001600160a01b03909116906323b872dd906064016020604051808303816000875af1158015610783573d6000803e3d6000fd5b505050506040513d601f19601f820116820180604052508101906107a79190610eca565b5034600560008282546107ba9190610eec565b9091555050604080513481526020810183905233917fac1d76749e5447b7b16f5ab61447e1bd502f3bb4807af3b28e620d1700a6ee45910160405180910390a26105ce60018055565b6000670de0b6b3a76400006003548361081c9190610e91565b6108269190610ea8565b92915050565b610834610d6f565b600081116108845760405162461bcd60e51b815260206004820152601b60248201527f52617465206d7573742062652067726561746572207468616e20300000000000604482015260640161039c565b600380549082905560408051828152602081018490527fb38780ddde1f073d91c150de2696f3f7085883648ba21cc5ef01029cb21d1916910160405180910390a15050565b6108d1610d6f565b6108db6000610dc9565b565b6108e5610d16565b600034116109285760405162461bcd60e51b815260206004820152601060248201526f053656e64204b444120746f20737761760841b604482015260640161039c565b344710156109785760405162461bcd60e51b815260206004820152601d60248201527f496e73756666696369656e7420636f6e74726163742062616c616e6365000000604482015260640161039c565b6000670de0b6b3a7640000600354346109919190610e91565b61099b9190610ea8565b6002546040516370a0823160e01b815230600482015291925082916001600160a01b03909116906370a0823190602401602060405180830381865afa1580156109e8573d6000803e3d6000fd5b505050506040513d601f19601f82011682018060405250810190610a0c9190610e62565b1015610a5a5760405162461bcd60e51b815260206004820152601c60248201527f496e73756666696369656e7420746f6b656e206c697175696469747900000000604482015260640161039c565b60025460405163a9059cbb60e01b8152336004820152602481018390526001600160a01b039091169063a9059cbb906044016020604051808303816000875af1158015610aab573d6000803e3d6000fd5b505050506040513d601f19601f82011682018060405250810190610acf9190610eca565b503460046000828254610ae29190610eec565b909155505060035460408051348152602081018490529081019190915233907fe3a277e9dc82afe4d40533f81d7299e0d9ca6d4ed93e2bbe5d94a93eaf0a5b5f9060600160405180910390a2506108db60018055565b60035460009061081c83670de0b6b3a7640000610e91565b610b58610d6f565b600080546040516001600160a01b03909116914780156108fc02929091818181858888f19350505050158015610b92573d6000803e3d6000fd5b506002546040516370a0823160e01b81523060048201526000916001600160a01b0316906370a0823190602401602060405180830381865afa158015610bdc573d6000803e3d6000fd5b505050506040513d601f19601f82011682018060405250810190610c009190610e62565b905080156105ce576002546001600160a01b031663a9059cbb610c2b6000546001600160a01b031690565b6040516001600160e01b031960e084901b1681526001600160a01b039091166004820152602481018490526044016020604051808303816000875af1158015610c78573d6000803e3d6000fd5b505050506040513d601f19601f82011682018060405250810190610c9c9190610eca565b5050565b610ca8610d6f565b6001600160a01b038116610d0d5760405162461bcd60e51b815260206004820152602660248201527f4f776e61626c653a206e6577206f776e657220697320746865207a65726f206160448201526564647265737360d01b606482015260840161039c565b6105ce81610dc9565b600260015403610d685760405162461bcd60e51b815260206004820152601f60248201527f5265656e7472616e637947756172643a207265656e7472616e742063616c6c00604482015260640161039c565b6002600155565b6000546001600160a01b031633146108db5760405162461bcd60e51b815260206004820181905260248201527f4f776e61626c653a2063616c6c6572206973206e6f7420746865206f776e6572604482015260640161039c565b600080546001600160a01b038381166001600160a01b0319831681178455604051919092169283917f8be0079c531659141344cd1fd0a4f28419497f9722a3daafe3b4186f6b6457e09190a35050565b600060208284031215610e2b57600080fd5b5035919050565b600060208284031215610e4457600080fd5b81356001600160a01b0381168114610e5b57600080fd5b9392505050565b600060208284031215610e7457600080fd5b5051919050565b634e487b7160e01b600052601160045260246000fd5b808202811582820484141761082657610826610e7b565b600082610ec557634e487b7160e01b600052601260045260246000fd5b500490565b600060208284031215610edc57600080fd5b81518015158114610e5b57600080fd5b8082018082111561082657610826610e7b56fea2646970667358221220e4924875a2e749cd1d25f0f565f43c28768ccdf1e59e48173979f987d7d2f47164736f6c63430008130033",
  "linkReferences": {},
  "deployedLinkReferences": {}
}