{
  "_format": "hh-sol-artifact-1",
  "contractName": "DelegatedAccount",
  "sourceName": "contracts/DelegatedAccount.sol",
  "abi": [
    {
      "anonymous": false,
      "inputs": [
        {
          "indexed": true,
          "internalType": "address",
          "name": "owner",
          "type": "address"
        },
        {
          "indexed": true,
          "internalType": "address",
          "name": "delegatedAccount",
          "type": "address"
        },
        {
          "indexed": false,
          "internalType": "address[]",
          "name": "tokens",
          "type": "address[]"
        },
        {
          "indexed": false,
          "internalType": "uint256[]",
          "name": "amounts",
          "type": "uint256[]"
        }
      ],
      "name": "DelegatedAccountCreated",
      "type": "event"
    },
    {
      "anonymous": false,
      "inputs": [
        {
          "indexed": true,
          "internalType": "address",
          "name": "delegatedAccount",
          "type": "address"
        }
      ],
      "name": "DelegatedAccountDeactivated",
      "type": "event"
    },
    {
      "anonymous": false,
      "inputs": [
        {
          "indexed": true,
          "internalType": "address",
          "name": "previousOwner",
          "type": "address"
        },
        {
          "indexed": true,
          "internalType": "address",
          "name": "newOwner",
          "type": "address"
        }
      ],
      "name": "OwnershipTransferred",
      "type": "event"
    },
    {
      "anonymous": false,
      "inputs": [
        {
          "indexed": true,
          "internalType": "address",
          "name": "delegatedAccount",
          "type": "address"
        },
        {
          "indexed": true,
          "internalType": "address",
          "name": "token",
          "type": "address"
        },
        {
          "indexed": false,
          "internalType": "uint256",
          "name": "newAmount",
          "type": "uint256"
        }
      ],
      "name": "SpendingLimitUpdated",
      "type": "event"
    },
    {
      "anonymous": false,
      "inputs": [
        {
          "indexed": true,
          "internalType": "address",
          "name": "delegatedAccount",
          "type": "address"
        },
        {
          "indexed": true,
          "internalType": "address",
          "name": "to",
          "type": "address"
        },
        {
          "indexed": false,
          "internalType": "uint256",
          "name": "value",
          "type": "uint256"
        },
        {
          "indexed": false,
          "internalType": "bytes",
          "name": "data",
          "type": "bytes"
        }
      ],
      "name": "TransactionExecuted",
      "type": "event"
    },
    {
      "inputs": [
        {
          "internalType": "address",
          "name": "delegatedAccount",
          "type": "address"
        },
        {
          "internalType": "address",
          "name": "token",
          "type": "address"
        },
        {
          "internalType": "uint256",
          "name": "amount",
          "type": "uint256"
        }
      ],
      "name": "canSpend",
      "outputs": [
        {
          "internalType": "bool",
          "name": "canSpendAmount",
          "type": "bool"
        },
        {
          "internalType": "uint256",
          "name": "remainingAmount",
          "type": "uint256"
        }
      ],
      "stateMutability": "view",
      "type": "function"
    },
    {
      "inputs": [
        {
          "internalType": "address",
          "name": "delegatedAccount",
          "type": "address"
        },
        {
          "internalType": "address[]",
          "name": "tokens",
          "type": "address[]"
        },
        {
          "internalType": "uint256[]",
          "name": "amounts",
          "type": "uint256[]"
        }
      ],
      "name": "createDelegatedAccount",
      "outputs": [],
      "stateMutability": "nonpayable",
      "type": "function"
    },
    {
      "inputs": [
        {
          "internalType": "address",
          "name": "delegatedAccount",
          "type": "address"
        }
      ],
      "name": "deactivateDelegatedAccount",
      "outputs": [],
      "stateMutability": "nonpayable",
      "type": "function"
    },
    {
      "inputs": [
        {
          "internalType": "address",
          "name": "",
          "type": "address"
        }
      ],
      "name": "delegatedAccounts",
      "outputs": [
        {
          "internalType": "address",
          "name": "account",
          "type": "address"
        },
        {
          "internalType": "address",
          "name": "owner",
          "type": "address"
        },
        {
          "internalType": "bool",
          "name": "isActive",
          "type": "bool"
        },
        {
          "internalType": "uint256",
          "name": "createdAt",
          "type": "uint256"
        }
      ],
      "stateMutability": "view",
      "type": "function"
    },
    {
      "inputs": [
        {
          "internalType": "address",
          "name": "to",
          "type": "address"
        },
        {
          "internalType": "uint256",
          "name": "value",
          "type": "uint256"
        },
        {
          "internalType": "bytes",
          "name": "data",
          "type": "bytes"
        }
      ],
      "name": "executeTransaction",
      "outputs": [],
      "stateMutability": "nonpayable",
      "type": "function"
    },
    {
      "inputs": [
        {
          "internalType": "address",
          "name": "delegatedAccount",
          "type": "address"
        }
      ],
      "name": "getDelegatedAccountInfo",
      "outputs": [
        {
          "components": [
            {
              "internalType": "address",
              "name": "account",
              "type": "address"
            },
            {
              "internalType": "address",
              "name": "owner",
              "type": "address"
            },
            {
              "components": [
                {
                  "internalType": "address",
                  "name": "token",
                  "type": "address"
                },
                {
                  "internalType": "uint256",
                  "name": "amount",
                  "type": "uint256"
                },
                {
                  "internalType": "uint256",
                  "name": "spent",
                  "type": "uint256"
                },
                {
                  "internalType": "uint256",
                  "name": "resetTime",
                  "type": "uint256"
                },
                {
                  "internalType": "bool",
                  "name": "isActive",
                  "type": "bool"
                }
              ],
              "internalType": "struct DelegatedAccount.SpendingLimit[]",
              "name": "limits",
              "type": "tuple[]"
            },
            {
              "internalType": "bool",
              "name": "isActive",
              "type": "bool"
            },
            {
              "internalType": "uint256",
              "name": "createdAt",
              "type": "uint256"
            }
          ],
          "internalType": "struct DelegatedAccount.DelegatedAccountInfo",
          "name": "info",
          "type": "tuple"
        }
      ],
      "stateMutability": "view",
      "type": "function"
    },
    {
      "inputs": [
        {
          "internalType": "address",
          "name": "owner",
          "type": "address"
        }
      ],
      "name": "getOwnerDelegatedAccounts",
      "outputs": [
        {
          "internalType": "address[]",
          "name": "accounts",
          "type": "address[]"
        }
      ],
      "stateMutability": "view",
      "type": "function"
    },
    {
      "inputs": [],
      "name": "owner",
      "outputs": [
        {
          "internalType": "address",
          "name": "",
          "type": "address"
        }
      ],
      "stateMutability": "view",
      "type": "function"
    },
    {
      "inputs": [
        {
          "internalType": "address",
          "name": "",
          "type": "address"
        },
        {
          "internalType": "uint256",
          "name": "",
          "type": "uint256"
        }
      ],
      "name": "ownerDelegatedAccounts",
      "outputs": [
        {
          "internalType": "address",
          "name": "",
          "type": "address"
        }
      ],
      "stateMutability": "view",
      "type": "function"
    },
    {
      "inputs": [],
      "name": "renounceOwnership",
      "outputs": [],
      "stateMutability": "nonpayable",
      "type": "function"
    },
    {
      "inputs": [
        {
          "internalType": "address",
          "name": "newOwner",
          "type": "address"
        }
      ],
      "name": "transferOwnership",
      "outputs": [],
      "stateMutability": "nonpayable",
      "type": "function"
    },
    {
      "inputs": [
        {
          "internalType": "address",
          "name": "delegatedAccount",
          "type": "address"
        },
        {
          "internalType": "address",
          "name": "token",
          "type": "address"
        },
        {
          "internalType": "uint256",
          "name": "newAmount",
          "type": "uint256"
        }
      ],
      "name": "updateSpendingLimit",
      "outputs": [],
      "stateMutability": "nonpayable",
      "type": "function"
    },
    {
      "stateMutability": "payable",
      "type": "receive"
    }
  ],
  "bytecode": "0x608060405234801561001057600080fd5b5061002d61002261003960201b60201c565b61004160201b60201c565b60018081905550610105565b600033905090565b60008060009054906101000a900473ffffffffffffffffffffffffffffffffffffffff169050816000806101000a81548173ffffffffffffffffffffffffffffffffffffffff021916908373ffffffffffffffffffffffffffffffffffffffff1602179055508173ffffffffffffffffffffffffffffffffffffffff168173ffffffffffffffffffffffffffffffffffffffff167f8be0079c531659141344cd1fd0a4f28419497f9722a3daafe3b4186f6b6457e060405160405180910390a35050565b612cf8806101146000396000f3fe6080604052600436106100ab5760003560e01c80639f9417f8116100645780639f9417f8146101c5578063a12404f514610203578063c174672514610243578063cbbb448014610280578063e9ad887b146102a9578063f2fde38b146102d2576100b2565b806305f91a20146100b757806310bc6606146100f45780633f579f421461011d578063715018a61461014657806387f089e51461015d5780638da5cb5b1461019a576100b2565b366100b257005b600080fd5b3480156100c357600080fd5b506100de60048036038101906100d99190611bf0565b6102fb565b6040516100eb9190611cdb565b60405180910390f35b34801561010057600080fd5b5061011b60048036038101906101169190611f4f565b6103c8565b005b34801561012957600080fd5b50610144600480360381019061013f919061208f565b610860565b005b34801561015257600080fd5b5061015b610ad5565b005b34801561016957600080fd5b50610184600480360381019061017f91906120fe565b610ae9565b604051610191919061214d565b60405180910390f35b3480156101a657600080fd5b506101af610b37565b6040516101bc919061214d565b60405180910390f35b3480156101d157600080fd5b506101ec60048036038101906101e79190612168565b610b60565b6040516101fa9291906121e5565b60405180910390f35b34801561020f57600080fd5b5061022a60048036038101906102259190611bf0565b610ec9565b60405161023a949392919061220e565b60405180910390f35b34801561024f57600080fd5b5061026a60048036038101906102659190611bf0565b610f46565b60405161027791906123fe565b60405180910390f35b34801561028c57600080fd5b506102a760048036038101906102a29190612168565b61115e565b005b3480156102b557600080fd5b506102d060048036038101906102cb9190611bf0565b611525565b005b3480156102de57600080fd5b506102f960048036038101906102f49190611bf0565b61165e565b005b6060600360008373ffffffffffffffffffffffffffffffffffffffff1673ffffffffffffffffffffffffffffffffffffffff1681526020019081526020016000208054806020026020016040519081016040528092919081815260200182805480156103bc57602002820191906000526020600020905b8160009054906101000a900473ffffffffffffffffffffffffffffffffffffffff1673ffffffffffffffffffffffffffffffffffffffff1681526020019060010190808311610372575b50505050509050919050565b6103d06116e1565b600073ffffffffffffffffffffffffffffffffffffffff168373ffffffffffffffffffffffffffffffffffffffff160361043f576040517f08c379a00000000000000000000000000000000000000000000000000000000081526004016104369061247d565b60405180910390fd5b8051825114610483576040517f08c379a000000000000000000000000000000000000000000000000000000000815260040161047a906124e9565b60405180910390fd5b600260008473ffffffffffffffffffffffffffffffffffffffff1673ffffffffffffffffffffffffffffffffffffffff16815260200190815260200160002060030160009054906101000a900460ff1615610513576040517f08c379a000000000000000000000000000000000000000000000000000000000815260040161050a90612555565b60405180910390fd5b6000600260008573ffffffffffffffffffffffffffffffffffffffff1673ffffffffffffffffffffffffffffffffffffffff1681526020019081526020016000209050838160000160006101000a81548173ffffffffffffffffffffffffffffffffffffffff021916908373ffffffffffffffffffffffffffffffffffffffff160217905550338160010160006101000a81548173ffffffffffffffffffffffffffffffffffffffff021916908373ffffffffffffffffffffffffffffffffffffffff16021790555060018160030160006101000a81548160ff02191690831515021790555042816004018190555060005b835181101561075257816002016040518060a001604052808684815181106106305761062f612575565b5b602002602001015173ffffffffffffffffffffffffffffffffffffffff16815260200185848151811061066657610665612575565b5b6020026020010151815260200160008152602001620151804261068991906125d3565b815260200160011515815250908060018154018082558091505060019003906000526020600020906005020160009091909190915060008201518160000160006101000a81548173ffffffffffffffffffffffffffffffffffffffff021916908373ffffffffffffffffffffffffffffffffffffffff16021790555060208201518160010155604082015181600201556060820151816003015560808201518160040160006101000a81548160ff02191690831515021790555050508080600101915050610605565b50600360003373ffffffffffffffffffffffffffffffffffffffff1673ffffffffffffffffffffffffffffffffffffffff168152602001908152602001600020849080600181540180825580915050600190039060005260206000200160009091909190916101000a81548173ffffffffffffffffffffffffffffffffffffffff021916908373ffffffffffffffffffffffffffffffffffffffff1602179055508373ffffffffffffffffffffffffffffffffffffffff163373ffffffffffffffffffffffffffffffffffffffff167f5ba6965735a05c0b42bc91a608a5a45cb0b70922ade3a942d4b61a974de4ff8b85856040516108529291906126b6565b60405180910390a350505050565b61086861175f565b6000600260003373ffffffffffffffffffffffffffffffffffffffff1673ffffffffffffffffffffffffffffffffffffffff16815260200190815260200160002090508060030160009054906101000a900460ff166108fc576040517f08c379a00000000000000000000000000000000000000000000000000000000081526004016108f390612739565b60405180910390fd5b600073ffffffffffffffffffffffffffffffffffffffff168160010160009054906101000a900473ffffffffffffffffffffffffffffffffffffffff1673ffffffffffffffffffffffffffffffffffffffff160361098f576040517f08c379a0000000000000000000000000000000000000000000000000000000008152600401610986906127a5565b60405180910390fd5b60008311156109b1576109a4816000856117ae565b6109b081600085611968565b5b60008473ffffffffffffffffffffffffffffffffffffffff1684846040516109d99190612836565b60006040518083038185875af1925050503d8060008114610a16576040519150601f19603f3d011682016040523d82523d6000602084013e610a1b565b606091505b5050905080610a5f576040517f08c379a0000000000000000000000000000000000000000000000000000000008152600401610a5690612899565b60405180910390fd5b8473ffffffffffffffffffffffffffffffffffffffff163373ffffffffffffffffffffffffffffffffffffffff167f9b9454e35c96c025dbfe5fc6ac29b7e4595138f5bd9b8a84c26ef3b16660e0a08686604051610abe929190612903565b60405180910390a35050610ad0611a4c565b505050565b610add6116e1565b610ae76000611a55565b565b60036020528160005260406000208181548110610b0557600080fd5b906000526020600020016000915091509054906101000a900473ffffffffffffffffffffffffffffffffffffffff1681565b60008060009054906101000a900473ffffffffffffffffffffffffffffffffffffffff16905090565b6000806000600260008773ffffffffffffffffffffffffffffffffffffffff1673ffffffffffffffffffffffffffffffffffffffff1681526020019081526020016000206040518060a00160405290816000820160009054906101000a900473ffffffffffffffffffffffffffffffffffffffff1673ffffffffffffffffffffffffffffffffffffffff1673ffffffffffffffffffffffffffffffffffffffff1681526020016001820160009054906101000a900473ffffffffffffffffffffffffffffffffffffffff1673ffffffffffffffffffffffffffffffffffffffff1673ffffffffffffffffffffffffffffffffffffffff16815260200160028201805480602002602001604051908101604052809291908181526020016000905b82821015610d4157838290600052602060002090600502016040518060a00160405290816000820160009054906101000a900473ffffffffffffffffffffffffffffffffffffffff1673ffffffffffffffffffffffffffffffffffffffff1673ffffffffffffffffffffffffffffffffffffffff1681526020016001820154815260200160028201548152602001600382015481526020016004820160009054906101000a900460ff16151515158152505081526020019060010190610c80565b5050505081526020016003820160009054906101000a900460ff1615151515815260200160048201548152505090508060600151610db4576040517f08c379a0000000000000000000000000000000000000000000000000000000008152600401610dab9061297f565b60405180910390fd5b60005b816040015151811015610eb7578573ffffffffffffffffffffffffffffffffffffffff1682604001518281518110610df257610df1612575565b5b60200260200101516000015173ffffffffffffffffffffffffffffffffffffffff16148015610e40575081604001518181518110610e3357610e32612575565b5b6020026020010151608001515b15610eaa57600082604001518281518110610e5e57610e5d612575565b5b60200260200101516040015183604001518381518110610e8157610e80612575565b5b602002602001015160200151610e97919061299f565b9050808611158194509450505050610ec1565b8080600101915050610db7565b5060008092509250505b935093915050565b60026020528060005260406000206000915090508060000160009054906101000a900473ffffffffffffffffffffffffffffffffffffffff16908060010160009054906101000a900473ffffffffffffffffffffffffffffffffffffffff16908060030160009054906101000a900460ff16908060040154905084565b610f4e611b21565b600260008373ffffffffffffffffffffffffffffffffffffffff1673ffffffffffffffffffffffffffffffffffffffff1681526020019081526020016000206040518060a00160405290816000820160009054906101000a900473ffffffffffffffffffffffffffffffffffffffff1673ffffffffffffffffffffffffffffffffffffffff1673ffffffffffffffffffffffffffffffffffffffff1681526020016001820160009054906101000a900473ffffffffffffffffffffffffffffffffffffffff1673ffffffffffffffffffffffffffffffffffffffff1673ffffffffffffffffffffffffffffffffffffffff16815260200160028201805480602002602001604051908101604052809291908181526020016000905b8282101561112a57838290600052602060002090600502016040518060a00160405290816000820160009054906101000a900473ffffffffffffffffffffffffffffffffffffffff1673ffffffffffffffffffffffffffffffffffffffff1673ffffffffffffffffffffffffffffffffffffffff1681526020016001820154815260200160028201548152602001600382015481526020016004820160009054906101000a900460ff16151515158152505081526020019060010190611069565b5050505081526020016003820160009054906101000a900460ff161515151581526020016004820154815250509050919050565b6000600260008573ffffffffffffffffffffffffffffffffffffffff1673ffffffffffffffffffffffffffffffffffffffff16815260200190815260200160002090503373ffffffffffffffffffffffffffffffffffffffff168160010160009054906101000a900473ffffffffffffffffffffffffffffffffffffffff1673ffffffffffffffffffffffffffffffffffffffff1614611233576040517f08c379a000000000000000000000000000000000000000000000000000000000815260040161122a90612a1f565b60405180910390fd5b8060030160009054906101000a900460ff16611284576040517f08c379a000000000000000000000000000000000000000000000000000000000815260040161127b9061297f565b60405180910390fd5b60005b81600201805490508110156113b5578373ffffffffffffffffffffffffffffffffffffffff168260020182815481106112c3576112c2612575565b5b906000526020600020906005020160000160009054906101000a900473ffffffffffffffffffffffffffffffffffffffff1673ffffffffffffffffffffffffffffffffffffffff16036113a8578282600201828154811061132757611326612575565b5b9060005260206000209060050201600101819055508373ffffffffffffffffffffffffffffffffffffffff168573ffffffffffffffffffffffffffffffffffffffff167fbae546dee4cdda3373cbd29134aea6bc8f5a16e508791a2e0d2a3848d3016ee6856040516113999190612a3f565b60405180910390a35050611520565b8080600101915050611287565b50806002016040518060a001604052808573ffffffffffffffffffffffffffffffffffffffff1681526020018481526020016000815260200162015180426113fd91906125d3565b815260200160011515815250908060018154018082558091505060019003906000526020600020906005020160009091909190915060008201518160000160006101000a81548173ffffffffffffffffffffffffffffffffffffffff021916908373ffffffffffffffffffffffffffffffffffffffff16021790555060208201518160010155604082015181600201556060820151816003015560808201518160040160006101000a81548160ff02191690831515021790555050508273ffffffffffffffffffffffffffffffffffffffff168473ffffffffffffffffffffffffffffffffffffffff167fbae546dee4cdda3373cbd29134aea6bc8f5a16e508791a2e0d2a3848d3016ee6846040516115169190612a3f565b60405180910390a3505b505050565b6000600260008373ffffffffffffffffffffffffffffffffffffffff1673ffffffffffffffffffffffffffffffffffffffff16815260200190815260200160002090503373ffffffffffffffffffffffffffffffffffffffff168160010160009054906101000a900473ffffffffffffffffffffffffffffffffffffffff1673ffffffffffffffffffffffffffffffffffffffff16146115fa576040517f08c379a00000000000000000000000000000000000000000000000000000000081526004016115f190612a1f565b60405180910390fd5b60008160030160006101000a81548160ff0219169083151502179055508173ffffffffffffffffffffffffffffffffffffffff167f94bfab270b62e2926f07f352e610b4039e35ed432e390aecc2fd7b125a17396160405160405180910390a25050565b6116666116e1565b600073ffffffffffffffffffffffffffffffffffffffff168173ffffffffffffffffffffffffffffffffffffffff16036116d5576040517f08c379a00000000000000000000000000000000000000000000000000000000081526004016116cc90612acc565b60405180910390fd5b6116de81611a55565b50565b6116e9611b19565b73ffffffffffffffffffffffffffffffffffffffff16611707610b37565b73ffffffffffffffffffffffffffffffffffffffff161461175d576040517f08c379a000000000000000000000000000000000000000000000000000000000815260040161175490612b38565b60405180910390fd5b565b6002600154036117a4576040517f08c379a000000000000000000000000000000000000000000000000000000000815260040161179b90612ba4565b60405180910390fd5b6002600181905550565b60005b8360020180549050811015611927578273ffffffffffffffffffffffffffffffffffffffff168460020182815481106117ed576117ec612575565b5b906000526020600020906005020160000160009054906101000a900473ffffffffffffffffffffffffffffffffffffffff1673ffffffffffffffffffffffffffffffffffffffff16148015611873575083600201818154811061185357611852612575565b5b906000526020600020906005020160040160009054906101000a900460ff165b1561191a5783600201818154811061188e5761188d612575565b5b906000526020600020906005020160010154828560020183815481106118b7576118b6612575565b5b9060005260206000209060050201600201546118d391906125d3565b1115611914576040517f08c379a000000000000000000000000000000000000000000000000000000000815260040161190b90612c10565b60405180910390fd5b50611963565b80806001019150506117b1565b506040517f08c379a000000000000000000000000000000000000000000000000000000000815260040161195a90612ca2565b60405180910390fd5b505050565b60005b8360020180549050811015611a45578273ffffffffffffffffffffffffffffffffffffffff168460020182815481106119a7576119a6612575565b5b906000526020600020906005020160000160009054906101000a900473ffffffffffffffffffffffffffffffffffffffff1673ffffffffffffffffffffffffffffffffffffffff1603611a385781846002018281548110611a0b57611a0a612575565b5b90600052602060002090600502016002016000828254611a2b91906125d3565b9250508190555050611a47565b808060010191505061196b565b505b505050565b60018081905550565b60008060009054906101000a900473ffffffffffffffffffffffffffffffffffffffff169050816000806101000a81548173ffffffffffffffffffffffffffffffffffffffff021916908373ffffffffffffffffffffffffffffffffffffffff1602179055508173ffffffffffffffffffffffffffffffffffffffff168173ffffffffffffffffffffffffffffffffffffffff167f8be0079c531659141344cd1fd0a4f28419497f9722a3daafe3b4186f6b6457e060405160405180910390a35050565b600033905090565b6040518060a00160405280600073ffffffffffffffffffffffffffffffffffffffff168152602001600073ffffffffffffffffffffffffffffffffffffffff16815260200160608152602001600015158152602001600081525090565b6000604051905090565b600080fd5b600080fd5b600073ffffffffffffffffffffffffffffffffffffffff82169050919050565b6000611bbd82611b92565b9050919050565b611bcd81611bb2565b8114611bd857600080fd5b50565b600081359050611bea81611bc4565b92915050565b600060208284031215611c0657611c05611b88565b5b6000611c1484828501611bdb565b91505092915050565b600081519050919050565b600082825260208201905092915050565b6000819050602082019050919050565b611c5281611bb2565b82525050565b6000611c648383611c49565b60208301905092915050565b6000602082019050919050565b6000611c8882611c1d565b611c928185611c28565b9350611c9d83611c39565b8060005b83811015611cce578151611cb58882611c58565b9750611cc083611c70565b925050600181019050611ca1565b5085935050505092915050565b60006020820190508181036000830152611cf58184611c7d565b905092915050565b600080fd5b6000601f19601f8301169050919050565b7f4e487b7100000000000000000000000000000000000000000000000000000000600052604160045260246000fd5b611d4b82611d02565b810181811067ffffffffffffffff82111715611d6a57611d69611d13565b5b80604052505050565b6000611d7d611b7e565b9050611d898282611d42565b919050565b600067ffffffffffffffff821115611da957611da8611d13565b5b602082029050602081019050919050565b600080fd5b6000611dd2611dcd84611d8e565b611d73565b90508083825260208201905060208402830185811115611df557611df4611dba565b5b835b81811015611e1e5780611e0a8882611bdb565b845260208401935050602081019050611df7565b5050509392505050565b600082601f830112611e3d57611e3c611cfd565b5b8135611e4d848260208601611dbf565b91505092915050565b600067ffffffffffffffff821115611e7157611e70611d13565b5b602082029050602081019050919050565b6000819050919050565b611e9581611e82565b8114611ea057600080fd5b50565b600081359050611eb281611e8c565b92915050565b6000611ecb611ec684611e56565b611d73565b90508083825260208201905060208402830185811115611eee57611eed611dba565b5b835b81811015611f175780611f038882611ea3565b845260208401935050602081019050611ef0565b5050509392505050565b600082601f830112611f3657611f35611cfd565b5b8135611f46848260208601611eb8565b91505092915050565b600080600060608486031215611f6857611f67611b88565b5b6000611f7686828701611bdb565b935050602084013567ffffffffffffffff811115611f9757611f96611b8d565b5b611fa386828701611e28565b925050604084013567ffffffffffffffff811115611fc457611fc3611b8d565b5b611fd086828701611f21565b9150509250925092565b600080fd5b600067ffffffffffffffff821115611ffa57611ff9611d13565b5b61200382611d02565b9050602081019050919050565b82818337600083830152505050565b600061203261202d84611fdf565b611d73565b90508281526020810184848401111561204e5761204d611fda565b5b612059848285612010565b509392505050565b600082601f83011261207657612075611cfd565b5b813561208684826020860161201f565b91505092915050565b6000806000606084860312156120a8576120a7611b88565b5b60006120b686828701611bdb565b93505060206120c786828701611ea3565b925050604084013567ffffffffffffffff8111156120e8576120e7611b8d565b5b6120f486828701612061565b9150509250925092565b6000806040838503121561211557612114611b88565b5b600061212385828601611bdb565b925050602061213485828601611ea3565b9150509250929050565b61214781611bb2565b82525050565b6000602082019050612162600083018461213e565b92915050565b60008060006060848603121561218157612180611b88565b5b600061218f86828701611bdb565b93505060206121a086828701611bdb565b92505060406121b186828701611ea3565b9150509250925092565b60008115159050919050565b6121d0816121bb565b82525050565b6121df81611e82565b82525050565b60006040820190506121fa60008301856121c7565b61220760208301846121d6565b9392505050565b6000608082019050612223600083018761213e565b612230602083018661213e565b61223d60408301856121c7565b61224a60608301846121d6565b95945050505050565b600081519050919050565b600082825260208201905092915050565b6000819050602082019050919050565b61228881611e82565b82525050565b612297816121bb565b82525050565b60a0820160008201516122b36000850182611c49565b5060208201516122c6602085018261227f565b5060408201516122d9604085018261227f565b5060608201516122ec606085018261227f565b5060808201516122ff608085018261228e565b50505050565b6000612311838361229d565b60a08301905092915050565b6000602082019050919050565b600061233582612253565b61233f818561225e565b935061234a8361226f565b8060005b8381101561237b5781516123628882612305565b975061236d8361231d565b92505060018101905061234e565b5085935050505092915050565b600060a0830160008301516123a06000860182611c49565b5060208301516123b36020860182611c49565b50604083015184820360408601526123cb828261232a565b91505060608301516123e0606086018261228e565b5060808301516123f3608086018261227f565b508091505092915050565b600060208201905081810360008301526124188184612388565b905092915050565b600082825260208201905092915050565b7f496e76616c69642064656c656761746564206163636f756e7400000000000000600082015250565b6000612467601983612420565b915061247282612431565b602082019050919050565b600060208201905081810360008301526124968161245a565b9050919050565b7f417272617973206c656e677468206d69736d6174636800000000000000000000600082015250565b60006124d3601683612420565b91506124de8261249d565b602082019050919050565b60006020820190508181036000830152612502816124c6565b9050919050565b7f4163636f756e7420616c72656164792065786973747300000000000000000000600082015250565b600061253f601683612420565b915061254a82612509565b602082019050919050565b6000602082019050818103600083015261256e81612532565b9050919050565b7f4e487b7100000000000000000000000000000000000000000000000000000000600052603260045260246000fd5b7f4e487b7100000000000000000000000000000000000000000000000000000000600052601160045260246000fd5b60006125de82611e82565b91506125e983611e82565b9250828201905080821115612601576126006125a4565b5b92915050565b600081519050919050565b600082825260208201905092915050565b6000819050602082019050919050565b600061263f838361227f565b60208301905092915050565b6000602082019050919050565b600061266382612607565b61266d8185612612565b935061267883612623565b8060005b838110156126a95781516126908882612633565b975061269b8361264b565b92505060018101905061267c565b5085935050505092915050565b600060408201905081810360008301526126d08185611c7d565b905081810360208301526126e48184612658565b90509392505050565b7f44656c656761746564206163636f756e74206e6f742061637469766500000000600082015250565b6000612723601c83612420565b915061272e826126ed565b602082019050919050565b6000602082019050818103600083015261275281612716565b9050919050565b7f4163636f756e74206e6f7420666f756e64000000000000000000000000000000600082015250565b600061278f601183612420565b915061279a82612759565b602082019050919050565b600060208201905081810360008301526127be81612782565b9050919050565b600081519050919050565b600081905092915050565b60005b838110156127f95780820151818401526020810190506127de565b60008484015250505050565b6000612810826127c5565b61281a81856127d0565b935061282a8185602086016127db565b80840191505092915050565b60006128428284612805565b915081905092915050565b7f5472616e73616374696f6e206661696c65640000000000000000000000000000600082015250565b6000612883601283612420565b915061288e8261284d565b602082019050919050565b600060208201905081810360008301526128b281612876565b9050919050565b600082825260208201905092915050565b60006128d5826127c5565b6128df81856128b9565b93506128ef8185602086016127db565b6128f881611d02565b840191505092915050565b600060408201905061291860008301856121d6565b818103602083015261292a81846128ca565b90509392505050565b7f4163636f756e74206e6f74206163746976650000000000000000000000000000600082015250565b6000612969601283612420565b915061297482612933565b602082019050919050565b600060208201905081810360008301526129988161295c565b9050919050565b60006129aa82611e82565b91506129b583611e82565b92508282039050818111156129cd576129cc6125a4565b5b92915050565b7f4e6f7420746865206f776e657200000000000000000000000000000000000000600082015250565b6000612a09600d83612420565b9150612a14826129d3565b602082019050919050565b60006020820190508181036000830152612a38816129fc565b9050919050565b6000602082019050612a5460008301846121d6565b92915050565b7f4f776e61626c653a206e6577206f776e657220697320746865207a65726f206160008201527f6464726573730000000000000000000000000000000000000000000000000000602082015250565b6000612ab6602683612420565b9150612ac182612a5a565b604082019050919050565b60006020820190508181036000830152612ae581612aa9565b9050919050565b7f4f776e61626c653a2063616c6c6572206973206e6f7420746865206f776e6572600082015250565b6000612b22602083612420565b9150612b2d82612aec565b602082019050919050565b60006020820190508181036000830152612b5181612b15565b9050919050565b7f5265656e7472616e637947756172643a207265656e7472616e742063616c6c00600082015250565b6000612b8e601f83612420565b9150612b9982612b58565b602082019050919050565b60006020820190508181036000830152612bbd81612b81565b9050919050565b7f5370656e64696e67206c696d6974206578636565646564000000000000000000600082015250565b6000612bfa601783612420565b9150612c0582612bc4565b602082019050919050565b60006020820190508181036000830152612c2981612bed565b9050919050565b7f4e6f207370656e64696e67206c696d697420666f756e6420666f7220746f6b6560008201527f6e00000000000000000000000000000000000000000000000000000000000000602082015250565b6000612c8c602183612420565b9150612c9782612c30565b604082019050919050565b60006020820190508181036000830152612cbb81612c7f565b905091905056fea2646970667358221220385a4f4013190361bff5f650a1b4b3b5ad0b04fc40025a2274510d3930fdd49764736f6c634300081c0033",
  "linkReferences": {},
  "deployedLinkReferences": {}
}