{
  "_format": "hh-sol-artifact-1",
  "contractName": "DelegatedAccount",
  "sourceName": "contracts/DelegatedAccount.sol",
  "abi": [
    {
      "anonymous": false,
      "inputs": [
        {
          "indexed": true,
          "internalType": "address",
          "name": "owner",
          "type": "address"
        },
        {
          "indexed": true,
          "internalType": "address",
          "name": "delegatedAccount",
          "type": "address"
        },
        {
          "indexed": false,
          "internalType": "address[]",
          "name": "tokens",
          "type": "address[]"
        },
        {
          "indexed": false,
          "internalType": "uint256[]",
          "name": "amounts",
          "type": "uint256[]"
        }
      ],
      "name": "DelegatedAccountCreated",
      "type": "event"
    },
    {
      "anonymous": false,
      "inputs": [
        {
          "indexed": true,
          "internalType": "address",
          "name": "delegatedAccount",
          "type": "address"
        }
      ],
      "name": "DelegatedAccountDeactivated",
      "type": "event"
    },
    {
      "anonymous": false,
      "inputs": [
        {
          "indexed": true,
          "internalType": "address",
          "name": "previousOwner",
          "type": "address"
        },
        {
          "indexed": true,
          "internalType": "address",
          "name": "newOwner",
          "type": "address"
        }
      ],
      "name": "OwnershipTransferred",
      "type": "event"
    },
    {
      "anonymous": false,
      "inputs": [
        {
          "indexed": true,
          "internalType": "address",
          "name": "delegatedAccount",
          "type": "address"
        },
        {
          "indexed": true,
          "internalType": "address",
          "name": "token",
          "type": "address"
        },
        {
          "indexed": false,
          "internalType": "uint256",
          "name": "newAmount",
          "type": "uint256"
        }
      ],
      "name": "SpendingLimitUpdated",
      "type": "event"
    },
    {
      "anonymous": false,
      "inputs": [
        {
          "indexed": true,
          "internalType": "address",
          "name": "delegatedAccount",
          "type": "address"
        },
        {
          "indexed": true,
          "internalType": "address",
          "name": "to",
          "type": "address"
        },
        {
          "indexed": false,
          "internalType": "uint256",
          "name": "value",
          "type": "uint256"
        },
        {
          "indexed": false,
          "internalType": "bytes",
          "name": "data",
          "type": "bytes"
        }
      ],
      "name": "TransactionExecuted",
      "type": "event"
    },
    {
      "inputs": [
        {
          "internalType": "address",
          "name": "delegatedAccount",
          "type": "address"
        },
        {
          "internalType": "address",
          "name": "token",
          "type": "address"
        },
        {
          "internalType": "uint256",
          "name": "amount",
          "type": "uint256"
        }
      ],
      "name": "canSpend",
      "outputs": [
        {
          "internalType": "bool",
          "name": "canSpendAmount",
          "type": "bool"
        },
        {
          "internalType": "uint256",
          "name": "remainingAmount",
          "type": "uint256"
        }
      ],
      "stateMutability": "view",
      "type": "function"
    },
    {
      "inputs": [
        {
          "internalType": "address",
          "name": "delegatedAccount",
          "type": "address"
        },
        {
          "internalType": "address[]",
          "name": "tokens",
          "type": "address[]"
        },
        {
          "internalType": "uint256[]",
          "name": "amounts",
          "type": "uint256[]"
        }
      ],
      "name": "createDelegatedAccount",
      "outputs": [],
      "stateMutability": "nonpayable",
      "type": "function"
    },
    {
      "inputs": [
        {
          "internalType": "address",
          "name": "delegatedAccount",
          "type": "address"
        }
      ],
      "name": "deactivateDelegatedAccount",
      "outputs": [],
      "stateMutability": "nonpayable",
      "type": "function"
    },
    {
      "inputs": [
        {
          "internalType": "address",
          "name": "",
          "type": "address"
        }
      ],
      "name": "delegatedAccounts",
      "outputs": [
        {
          "internalType": "address",
          "name": "account",
          "type": "address"
        },
        {
          "internalType": "address",
          "name": "owner",
          "type": "address"
        },
        {
          "internalType": "bool",
          "name": "isActive",
          "type": "bool"
        },
        {
          "internalType": "uint256",
          "name": "createdAt",
          "type": "uint256"
        }
      ],
      "stateMutability": "view",
      "type": "function"
    },
    {
      "inputs": [
        {
          "internalType": "address",
          "name": "to",
          "type": "address"
        },
        {
          "internalType": "uint256",
          "name": "value",
          "type": "uint256"
        },
        {
          "internalType": "bytes",
          "name": "data",
          "type": "bytes"
        }
      ],
      "name": "executeTransaction",
      "outputs": [],
      "stateMutability": "nonpayable",
      "type": "function"
    },
    {
      "inputs": [
        {
          "internalType": "address",
          "name": "delegatedAccount",
          "type": "address"
        }
      ],
      "name": "getDelegatedAccountInfo",
      "outputs": [
        {
          "components": [
            {
              "internalType": "address",
              "name": "account",
              "type": "address"
            },
            {
              "internalType": "address",
              "name": "owner",
              "type": "address"
            },
            {
              "components": [
                {
                  "internalType": "address",
                  "name": "token",
                  "type": "address"
                },
                {
                  "internalType": "uint256",
                  "name": "amount",
                  "type": "uint256"
                },
                {
                  "internalType": "uint256",
                  "name": "spent",
                  "type": "uint256"
                },
                {
                  "internalType": "uint256",
                  "name": "resetTime",
                  "type": "uint256"
                },
                {
                  "internalType": "bool",
                  "name": "isActive",
                  "type": "bool"
                }
              ],
              "internalType": "struct DelegatedAccount.SpendingLimit[]",
              "name": "limits",
              "type": "tuple[]"
            },
            {
              "internalType": "bool",
              "name": "isActive",
              "type": "bool"
            },
            {
              "internalType": "uint256",
              "name": "createdAt",
              "type": "uint256"
            }
          ],
          "internalType": "struct DelegatedAccount.DelegatedAccountInfo",
          "name": "info",
          "type": "tuple"
        }
      ],
      "stateMutability": "view",
      "type": "function"
    },
    {
      "inputs": [
        {
          "internalType": "address",
          "name": "owner",
          "type": "address"
        }
      ],
      "name": "getOwnerDelegatedAccounts",
      "outputs": [
        {
          "internalType": "address[]",
          "name": "accounts",
          "type": "address[]"
        }
      ],
      "stateMutability": "view",
      "type": "function"
    },
    {
      "inputs": [],
      "name": "owner",
      "outputs": [
        {
          "internalType": "address",
          "name": "",
          "type": "address"
        }
      ],
      "stateMutability": "view",
      "type": "function"
    },
    {
      "inputs": [
        {
          "internalType": "address",
          "name": "",
          "type": "address"
        },
        {
          "internalType": "uint256",
          "name": "",
          "type": "uint256"
        }
      ],
      "name": "ownerDelegatedAccounts",
      "outputs": [
        {
          "internalType": "address",
          "name": "",
          "type": "address"
        }
      ],
      "stateMutability": "view",
      "type": "function"
    },
    {
      "inputs": [],
      "name": "renounceOwnership",
      "outputs": [],
      "stateMutability": "nonpayable",
      "type": "function"
    },
    {
      "inputs": [
        {
          "internalType": "address",
          "name": "newOwner",
          "type": "address"
        }
      ],
      "name": "transferOwnership",
      "outputs": [],
      "stateMutability": "nonpayable",
      "type": "function"
    },
    {
      "inputs": [
        {
          "internalType": "address",
          "name": "delegatedAccount",
          "type": "address"
        },
        {
          "internalType": "address",
          "name": "token",
          "type": "address"
        },
        {
          "internalType": "uint256",
          "name": "newAmount",
          "type": "uint256"
        }
      ],
      "name": "updateSpendingLimit",
      "outputs": [],
      "stateMutability": "nonpayable",
      "type": "function"
    },
    {
      "stateMutability": "payable",
      "type": "receive"
    }
  ],
  "bytecode": "0x608060405234801561001057600080fd5b5061001a33610023565b60018055610073565b600080546001600160a01b038381166001600160a01b0319831681178455604051919092169283917f8be0079c531659141344cd1fd0a4f28419497f9722a3daafe3b4186f6b6457e09190a35050565b6117e0806100826000396000f3fe6080604052600436106100ab5760003560e01c80639f9417f8116100645780639f9417f81461019a578063a12404f5146101d1578063c174672514610255578063cbbb448014610282578063e9ad887b146102a2578063f2fde38b146102c257600080fd5b806305f91a20146100b757806310bc6606146100ed5780633f579f421461010f578063715018a61461012f57806387f089e5146101445780638da5cb5b1461017c57600080fd5b366100b257005b600080fd5b3480156100c357600080fd5b506100d76100d2366004611279565b6102e2565b6040516100e491906112df565b60405180910390f35b3480156100f957600080fd5b5061010d6101083660046113c8565b610358565b005b34801561011b57600080fd5b5061010d61012a36600461149a565b610638565b34801561013b57600080fd5b5061010d61080f565b34801561015057600080fd5b5061016461015f366004611549565b610823565b6040516001600160a01b0390911681526020016100e4565b34801561018857600080fd5b506000546001600160a01b0316610164565b3480156101a657600080fd5b506101ba6101b5366004611573565b61085b565b6040805192151583526020830191909152016100e4565b3480156101dd57600080fd5b506102246101ec366004611279565b60026020526000908152604090208054600182015460038301546004909301546001600160a01b0392831693929091169160ff169084565b604080516001600160a01b0395861681529490931660208501529015159183019190915260608201526080016100e4565b34801561026157600080fd5b50610275610270366004611279565b610a8b565b6040516100e491906115af565b34801561028e57600080fd5b5061010d61029d366004611573565b610b9d565b3480156102ae57600080fd5b5061010d6102bd366004611279565b610e0a565b3480156102ce57600080fd5b5061010d6102dd366004611279565b610ead565b6001600160a01b03811660009081526003602090815260409182902080548351818402810184019094528084526060939283018282801561034c57602002820191906000526020600020905b81546001600160a01b0316815260019091019060200180831161032e575b50505050509050919050565b610360610f26565b6001600160a01b0383166103bb5760405162461bcd60e51b815260206004820152601960248201527f496e76616c69642064656c656761746564206163636f756e740000000000000060448201526064015b60405180910390fd5b80518251146104055760405162461bcd60e51b8152602060048201526016602482015275082e4e4c2f2e640d8cadccee8d040dad2e6dac2e8c6d60531b60448201526064016103b2565b6001600160a01b03831660009081526002602052604090206003015460ff161561046a5760405162461bcd60e51b81526020600482015260166024820152754163636f756e7420616c72656164792065786973747360501b60448201526064016103b2565b6001600160a01b038316600081815260026020526040812080546001600160a01b0319908116909317815560018082018054909416331790935560038101805460ff19169093179092554260048301555b83518110156105b757816002016040518060a001604052808684815181106104e5576104e5611668565b60200260200101516001600160a01b0316815260200185848151811061050d5761050d611668565b602002602001015181526020016000815260200142620151806105309190611694565b81526001602091820181905283548082018555600094855293829020835160059095020180546001600160a01b0319166001600160a01b0390951694909417845590820151908301556040810151600283015560608101516003830155608001516004909101805460ff1916911515919091179055806105af816116ad565b9150506104bb565b503360008181526003602090815260408083208054600181018255908452919092200180546001600160a01b0319166001600160a01b03881690811790915590519091907f5ba6965735a05c0b42bc91a608a5a45cb0b70922ade3a942d4b61a974de4ff8b9061062a90879087906116c6565b60405180910390a350505050565b610640610f80565b336000908152600260205260409020600381015460ff166106a35760405162461bcd60e51b815260206004820152601c60248201527f44656c656761746564206163636f756e74206e6f74206163746976650000000060448201526064016103b2565b60018101546001600160a01b03166106f15760405162461bcd60e51b81526020600482015260116024820152701058d8dbdd5b9d081b9bdd08199bdd5b99607a1b60448201526064016103b2565b821561070f5761070381600085610fd9565b61070f8160008561116d565b6000846001600160a01b0316848460405161072a9190611741565b60006040518083038185875af1925050503d8060008114610767576040519150601f19603f3d011682016040523d82523d6000602084013e61076c565b606091505b50509050806107b25760405162461bcd60e51b8152602060048201526012602482015271151c985b9cd858dd1a5bdb8819985a5b195960721b60448201526064016103b2565b846001600160a01b0316336001600160a01b03167f9b9454e35c96c025dbfe5fc6ac29b7e4595138f5bd9b8a84c26ef3b16660e0a086866040516107f792919061175d565b60405180910390a3505061080a60018055565b505050565b610817610f26565b610821600061120d565b565b6003602052816000526040600020818154811061083f57600080fd5b6000918252602090912001546001600160a01b03169150829050565b6001600160a01b038084166000908152600260208181526040808420815160a081018352815487168152600182015490961686840152928301805482518185028101850184528181529596879687969195919486019390929091879084015b828210156109265760008481526020908190206040805160a0810182526005860290920180546001600160a01b0316835260018082015484860152600282015492840192909252600381015460608401526004015460ff161515608083015290835290920191016108ba565b50505090825250600382015460ff161515602082015260049091015460409091015260608101519091506109915760405162461bcd60e51b81526020600482015260126024820152714163636f756e74206e6f742061637469766560701b60448201526064016103b2565b60005b816040015151811015610a7957856001600160a01b0316826040015182815181106109c1576109c1611668565b6020026020010151600001516001600160a01b0316148015610a015750816040015181815181106109f4576109f4611668565b6020026020010151608001515b15610a6757600082604001518281518110610a1e57610a1e611668565b60200260200101516040015183604001518381518110610a4057610a40611668565b602002602001015160200151610a569190611797565b8087111595509350610a8392505050565b80610a71816116ad565b915050610994565b5060008092509250505b935093915050565b6040805160a080820183526000808352602080840182905260608486018190528401829052608084018290526001600160a01b03868116835260028083528684208751958601885280548316865260018101549092168584015281018054875181850281018501895281815296979596929587019492939192909184015b82821015610b755760008481526020908190206040805160a0810182526005860290920180546001600160a01b0316835260018082015484860152600282015492840192909252600381015460608401526004015460ff16151560808301529083529092019101610b09565b50505090825250600382015460ff161515602082015260049091015460409091015292915050565b6001600160a01b03808416600090815260026020526040902060018101549091163314610bfc5760405162461bcd60e51b815260206004820152600d60248201526c2737ba103a34329037bbb732b960991b60448201526064016103b2565b600381015460ff16610c455760405162461bcd60e51b81526020600482015260126024820152714163636f756e74206e6f742061637469766560701b60448201526064016103b2565b60005b6002820154811015610d2357836001600160a01b0316826002018281548110610c7357610c73611668565b60009182526020909120600590910201546001600160a01b031603610d115782826002018281548110610ca857610ca8611668565b906000526020600020906005020160010181905550836001600160a01b0316856001600160a01b03167fbae546dee4cdda3373cbd29134aea6bc8f5a16e508791a2e0d2a3848d3016ee685604051610d0291815260200190565b60405180910390a35050505050565b80610d1b816116ad565b915050610c48565b50806002016040518060a00160405280856001600160a01b03168152602001848152602001600081526020014262015180610d5e9190611694565b81526001602091820181905283548082018555600094855293829020835160059095020180546001600160a01b0319166001600160a01b0395861617815583830151918101919091556040808401516002830155606084015160038301556080909301516004909101805460ff19169115159190911790559051848152858316928716917fbae546dee4cdda3373cbd29134aea6bc8f5a16e508791a2e0d2a3848d3016ee6910161062a565b6001600160a01b03808216600090815260026020526040902060018101549091163314610e695760405162461bcd60e51b815260206004820152600d60248201526c2737ba103a34329037bbb732b960991b60448201526064016103b2565b60038101805460ff191690556040516001600160a01b038316907f94bfab270b62e2926f07f352e610b4039e35ed432e390aecc2fd7b125a17396190600090a25050565b610eb5610f26565b6001600160a01b038116610f1a5760405162461bcd60e51b815260206004820152602660248201527f4f776e61626c653a206e6577206f776e657220697320746865207a65726f206160448201526564647265737360d01b60648201526084016103b2565b610f238161120d565b50565b6000546001600160a01b031633146108215760405162461bcd60e51b815260206004820181905260248201527f4f776e61626c653a2063616c6c6572206973206e6f7420746865206f776e657260448201526064016103b2565b600260015403610fd25760405162461bcd60e51b815260206004820152601f60248201527f5265656e7472616e637947756172643a207265656e7472616e742063616c6c0060448201526064016103b2565b6002600155565b60005b600284015481101561111a57826001600160a01b031684600201828154811061100757611007611668565b60009182526020909120600590910201546001600160a01b0316148015611056575083600201818154811061103e5761103e611668565b600091825260209091206004600590920201015460ff165b156111085783600201818154811061107057611070611668565b9060005260206000209060050201600101548285600201838154811061109857611098611668565b9060005260206000209060050201600201546110b49190611694565b11156111025760405162461bcd60e51b815260206004820152601760248201527f5370656e64696e67206c696d697420657863656564656400000000000000000060448201526064016103b2565b50505050565b80611112816116ad565b915050610fdc565b5060405162461bcd60e51b815260206004820152602160248201527f4e6f207370656e64696e67206c696d697420666f756e6420666f7220746f6b656044820152603760f91b60648201526084016103b2565b60005b600284015481101561110257826001600160a01b031684600201828154811061119b5761119b611668565b60009182526020909120600590910201546001600160a01b0316036111fb57818460020182815481106111d0576111d0611668565b906000526020600020906005020160020160008282546111f09190611694565b909155505050505050565b80611205816116ad565b915050611170565b600080546001600160a01b038381166001600160a01b0319831681178455604051919092169283917f8be0079c531659141344cd1fd0a4f28419497f9722a3daafe3b4186f6b6457e09190a35050565b80356001600160a01b038116811461127457600080fd5b919050565b60006020828403121561128b57600080fd5b6112948261125d565b9392505050565b600081518084526020808501945080840160005b838110156112d45781516001600160a01b0316875295820195908201906001016112af565b509495945050505050565b602081526000611294602083018461129b565b634e487b7160e01b600052604160045260246000fd5b604051601f8201601f1916810167ffffffffffffffff81118282101715611331576113316112f2565b604052919050565b600067ffffffffffffffff821115611353576113536112f2565b5060051b60200190565b600082601f83011261136e57600080fd5b8135602061138361137e83611339565b611308565b82815260059290921b840181019181810190868411156113a257600080fd5b8286015b848110156113bd57803583529183019183016113a6565b509695505050505050565b6000806000606084860312156113dd57600080fd5b6113e68461125d565b925060208085013567ffffffffffffffff8082111561140457600080fd5b818701915087601f83011261141857600080fd5b813561142661137e82611339565b81815260059190911b8301840190848101908a83111561144557600080fd5b938501935b8285101561146a5761145b8561125d565b8252938501939085019061144a565b96505050604087013592508083111561148257600080fd5b50506114908682870161135d565b9150509250925092565b6000806000606084860312156114af57600080fd5b6114b88461125d565b92506020808501359250604085013567ffffffffffffffff808211156114dd57600080fd5b818701915087601f8301126114f157600080fd5b813581811115611503576115036112f2565b611515601f8201601f19168501611308565b9150808252888482850101111561152b57600080fd5b80848401858401376000848284010152508093505050509250925092565b6000806040838503121561155c57600080fd5b6115658361125d565b946020939093013593505050565b60008060006060848603121561158857600080fd5b6115918461125d565b925061159f6020850161125d565b9150604084013590509250925092565b6000602080835260c0830160018060a01b0380865116838601528286015160408282168188015280880151915060a0606081818a015285845180885260e08b0191508886019750600095505b80861015611643578751805188168352898101518a840152858101518684015283810151848401526080908101511515908301529688019660019590950194908301906115fb565b50908a0151151560808a81019190915290990151970196909652509495945050505050565b634e487b7160e01b600052603260045260246000fd5b634e487b7160e01b600052601160045260246000fd5b808201808211156116a7576116a761167e565b92915050565b6000600182016116bf576116bf61167e565b5060010190565b6040815260006116d9604083018561129b565b82810360208481019190915284518083528582019282019060005b81811015611710578451835293830193918301916001016116f4565b5090979650505050505050565b60005b83811015611738578181015183820152602001611720565b50506000910152565b6000825161175381846020870161171d565b9190910192915050565b828152604060208201526000825180604084015261178281606085016020870161171d565b601f01601f1916919091016060019392505050565b818103818111156116a7576116a761167e56fea26469706673582212201f145cf4f76a458aaf7c78425f2813d013bbcea2c51e1fc6ef676bdac8bda4d464736f6c63430008130033",
  "linkReferences": {},
  "deployedLinkReferences": {}
}