{
  "_format": "hh-sol-artifact-1",
  "contractName": "AIDelegate",
  "sourceName": "contracts/AIDelegate.sol",
  "abi": [
    {
      "inputs": [],
      "stateMutability": "nonpayable",
      "type": "constructor"
    },
    {
      "anonymous": false,
      "inputs": [
        {
          "indexed": true,
          "internalType": "address",
          "name": "owner",
          "type": "address"
        },
        {
          "indexed": true,
          "internalType": "address",
          "name": "delegate",
          "type": "address"
        },
        {
          "indexed": false,
          "internalType": "uint256",
          "name": "spendingLimit",
          "type": "uint256"
        },
        {
          "indexed": false,
          "internalType": "string[]",
          "name": "allowedFunctions",
          "type": "string[]"
        }
      ],
      "name": "DelegateCreated",
      "type": "event"
    },
    {
      "anonymous": false,
      "inputs": [
        {
          "indexed": true,
          "internalType": "address",
          "name": "delegate",
          "type": "address"
        }
      ],
      "name": "DelegateDeactivated",
      "type": "event"
    },
    {
      "anonymous": false,
      "inputs": [
        {
          "indexed": true,
          "internalType": "address",
          "name": "delegate",
          "type": "address"
        },
        {
          "indexed": true,
          "internalType": "address",
          "name": "to",
          "type": "address"
        },
        {
          "indexed": false,
          "internalType": "uint256",
          "name": "value",
          "type": "uint256"
        },
        {
          "indexed": false,
          "internalType": "bytes",
          "name": "data",
          "type": "bytes"
        },
        {
          "indexed": false,
          "internalType": "bool",
          "name": "success",
          "type": "bool"
        }
      ],
      "name": "DelegateExecuted",
      "type": "event"
    },
    {
      "anonymous": false,
      "inputs": [
        {
          "indexed": true,
          "internalType": "address",
          "name": "previousOwner",
          "type": "address"
        },
        {
          "indexed": true,
          "internalType": "address",
          "name": "newOwner",
          "type": "address"
        }
      ],
      "name": "OwnershipTransferred",
      "type": "event"
    },
    {
      "anonymous": false,
      "inputs": [
        {
          "indexed": true,
          "internalType": "address",
          "name": "delegate",
          "type": "address"
        },
        {
          "indexed": false,
          "internalType": "uint256",
          "name": "newLimit",
          "type": "uint256"
        }
      ],
      "name": "SpendingLimitUpdated",
      "type": "event"
    },
    {
      "inputs": [
        {
          "internalType": "address",
          "name": "_delegate",
          "type": "address"
        },
        {
          "internalType": "uint256",
          "name": "_amount",
          "type": "uint256"
        }
      ],
      "name": "canSpend",
      "outputs": [
        {
          "internalType": "bool",
          "name": "canSpendAmount",
          "type": "bool"
        },
        {
          "internalType": "uint256",
          "name": "remainingAmount",
          "type": "uint256"
        }
      ],
      "stateMutability": "view",
      "type": "function"
    },
    {
      "inputs": [
        {
          "internalType": "address",
          "name": "_delegate",
          "type": "address"
        },
        {
          "internalType": "uint256",
          "name": "_spendingLimit",
          "type": "uint256"
        },
        {
          "internalType": "string[]",
          "name": "_allowedFunctions",
          "type": "string[]"
        }
      ],
      "name": "createDelegatedAccount",
      "outputs": [],
      "stateMutability": "nonpayable",
      "type": "function"
    },
    {
      "inputs": [
        {
          "internalType": "address",
          "name": "_delegate",
          "type": "address"
        }
      ],
      "name": "deactivateDelegate",
      "outputs": [],
      "stateMutability": "nonpayable",
      "type": "function"
    },
    {
      "inputs": [
        {
          "internalType": "address",
          "name": "",
          "type": "address"
        }
      ],
      "name": "delegates",
      "outputs": [
        {
          "internalType": "address",
          "name": "delegate",
          "type": "address"
        },
        {
          "internalType": "uint256",
          "name": "spendingLimit",
          "type": "uint256"
        },
        {
          "internalType": "uint256",
          "name": "spentAmount",
          "type": "uint256"
        },
        {
          "internalType": "bool",
          "name": "isActive",
          "type": "bool"
        },
        {
          "internalType": "uint256",
          "name": "createdAt",
          "type": "uint256"
        }
      ],
      "stateMutability": "view",
      "type": "function"
    },
    {
      "inputs": [],
      "name": "emergencyWithdraw",
      "outputs": [],
      "stateMutability": "nonpayable",
      "type": "function"
    },
    {
      "inputs": [
        {
          "internalType": "address",
          "name": "_token",
          "type": "address"
        },
        {
          "internalType": "address",
          "name": "_to",
          "type": "address"
        },
        {
          "internalType": "uint256",
          "name": "_amount",
          "type": "uint256"
        }
      ],
      "name": "executeTokenTransfer",
      "outputs": [],
      "stateMutability": "nonpayable",
      "type": "function"
    },
    {
      "inputs": [
        {
          "internalType": "address",
          "name": "_to",
          "type": "address"
        },
        {
          "internalType": "uint256",
          "name": "_value",
          "type": "uint256"
        },
        {
          "internalType": "bytes",
          "name": "_data",
          "type": "bytes"
        }
      ],
      "name": "executeViaDelegate",
      "outputs": [],
      "stateMutability": "payable",
      "type": "function"
    },
    {
      "inputs": [
        {
          "internalType": "address",
          "name": "_delegate",
          "type": "address"
        }
      ],
      "name": "getDelegateInfo",
      "outputs": [
        {
          "components": [
            {
              "internalType": "address",
              "name": "delegate",
              "type": "address"
            },
            {
              "internalType": "uint256",
              "name": "spendingLimit",
              "type": "uint256"
            },
            {
              "internalType": "uint256",
              "name": "spentAmount",
              "type": "uint256"
            },
            {
              "internalType": "bool",
              "name": "isActive",
              "type": "bool"
            },
            {
              "internalType": "uint256",
              "name": "createdAt",
              "type": "uint256"
            },
            {
              "internalType": "string[]",
              "name": "allowedFunctions",
              "type": "string[]"
            }
          ],
          "internalType": "struct AIDelegate.DelegateInfo",
          "name": "info",
          "type": "tuple"
        }
      ],
      "stateMutability": "view",
      "type": "function"
    },
    {
      "inputs": [
        {
          "internalType": "address",
          "name": "_owner",
          "type": "address"
        }
      ],
      "name": "getOwnerDelegates",
      "outputs": [
        {
          "internalType": "address[]",
          "name": "delegateAddresses",
          "type": "address[]"
        }
      ],
      "stateMutability": "view",
      "type": "function"
    },
    {
      "inputs": [],
      "name": "owner",
      "outputs": [
        {
          "internalType": "address",
          "name": "",
          "type": "address"
        }
      ],
      "stateMutability": "view",
      "type": "function"
    },
    {
      "inputs": [
        {
          "internalType": "address",
          "name": "",
          "type": "address"
        },
        {
          "internalType": "uint256",
          "name": "",
          "type": "uint256"
        }
      ],
      "name": "ownerDelegates",
      "outputs": [
        {
          "internalType": "address",
          "name": "",
          "type": "address"
        }
      ],
      "stateMutability": "view",
      "type": "function"
    },
    {
      "inputs": [],
      "name": "renounceOwnership",
      "outputs": [],
      "stateMutability": "nonpayable",
      "type": "function"
    },
    {
      "inputs": [
        {
          "internalType": "address",
          "name": "_delegate",
          "type": "address"
        }
      ],
      "name": "resetSpentAmount",
      "outputs": [],
      "stateMutability": "nonpayable",
      "type": "function"
    },
    {
      "inputs": [
        {
          "internalType": "address",
          "name": "newOwner",
          "type": "address"
        }
      ],
      "name": "transferOwnership",
      "outputs": [],
      "stateMutability": "nonpayable",
      "type": "function"
    },
    {
      "inputs": [
        {
          "internalType": "address",
          "name": "_delegate",
          "type": "address"
        },
        {
          "internalType": "uint256",
          "name": "_newLimit",
          "type": "uint256"
        }
      ],
      "name": "updateSpendingLimit",
      "outputs": [],
      "stateMutability": "nonpayable",
      "type": "function"
    },
    {
      "stateMutability": "payable",
      "type": "receive"
    }
  ],
  "bytecode": "0x608060405234801561001057600080fd5b5061002d61002261003960201b60201c565b61004160201b60201c565b60018081905550610105565b600033905090565b60008060009054906101000a900473ffffffffffffffffffffffffffffffffffffffff169050816000806101000a81548173ffffffffffffffffffffffffffffffffffffffff021916908373ffffffffffffffffffffffffffffffffffffffff1602179055508173ffffffffffffffffffffffffffffffffffffffff168173ffffffffffffffffffffffffffffffffffffffff167f8be0079c531659141344cd1fd0a4f28419497f9722a3daafe3b4186f6b6457e060405160405180910390a35050565b612b8a806101146000396000f3fe6080604052600436106100ec5760003560e01c8063715018a61161008a578063db2e21bc11610059578063db2e21bc14610314578063e6e6bd761461032b578063e776e61814610347578063f2fde38b14610370576100f3565b8063715018a61461028057806380734baa146102975780638d55c610146102c05780638da5cb5b146102e9576100f3565b80634f1f0ec9116100c65780634f1f0ec91461019c578063587cde1e146101d95780635b8ae6721461021a578063611c3fd814610257576100f3565b806310c67e1c146100f85780631881656b1461013557806318f3219814610173576100f3565b366100f357005b600080fd5b34801561010457600080fd5b5061011f600480360381019061011a9190611846565b610399565b60405161012c9190611a91565b60405180910390f35b34801561014157600080fd5b5061015c60048036038101906101579190611adf565b61055a565b60405161016a929190611b3d565b60405180910390f35b34801561017f57600080fd5b5061019a60048036038101906101959190611adf565b61074e565b005b3480156101a857600080fd5b506101c360048036038101906101be9190611adf565b610902565b6040516101d09190611b75565b60405180910390f35b3480156101e557600080fd5b5061020060048036038101906101fb9190611846565b610950565b604051610211959493929190611b90565b60405180910390f35b34801561022657600080fd5b50610241600480360381019061023c9190611846565b6109b3565b60405161024e9190611c92565b60405180910390f35b34801561026357600080fd5b5061027e60048036038101906102799190611846565b610a80565b005b34801561028c57600080fd5b50610295610bb8565b005b3480156102a357600080fd5b506102be60048036038101906102b99190611cb4565b610bcc565b005b3480156102cc57600080fd5b506102e760048036038101906102e29190611846565b610d6b565b005b3480156102f557600080fd5b506102fe610e4d565b60405161030b9190611b75565b60405180910390f35b34801561032057600080fd5b50610329610e76565b005b61034560048036038101906103409190611d6c565b610ece565b005b34801561035357600080fd5b5061036e60048036038101906103699190611ff1565b611106565b005b34801561037c57600080fd5b5061039760048036038101906103929190611846565b611487565b005b6103a16116ac565b600260008373ffffffffffffffffffffffffffffffffffffffff1673ffffffffffffffffffffffffffffffffffffffff1681526020019081526020016000206040518060c00160405290816000820160009054906101000a900473ffffffffffffffffffffffffffffffffffffffff1673ffffffffffffffffffffffffffffffffffffffff1673ffffffffffffffffffffffffffffffffffffffff16815260200160018201548152602001600282015481526020016003820160009054906101000a900460ff161515151581526020016004820154815260200160058201805480602002602001604051908101604052809291908181526020016000905b8282101561054b5783829060005260206000200180546104be9061208f565b80601f01602080910402602001604051908101604052809291908181526020018280546104ea9061208f565b80156105375780601f1061050c57610100808354040283529160200191610537565b820191906000526020600020905b81548152906001019060200180831161051a57829003601f168201915b50505050508152602001906001019061049f565b50505050815250509050919050565b6000806000600260008673ffffffffffffffffffffffffffffffffffffffff1673ffffffffffffffffffffffffffffffffffffffff1681526020019081526020016000206040518060c00160405290816000820160009054906101000a900473ffffffffffffffffffffffffffffffffffffffff1673ffffffffffffffffffffffffffffffffffffffff1673ffffffffffffffffffffffffffffffffffffffff16815260200160018201548152602001600282015481526020016003820160009054906101000a900460ff161515151581526020016004820154815260200160058201805480602002602001604051908101604052809291908181526020016000905b8282101561070957838290600052602060002001805461067c9061208f565b80601f01602080910402602001604051908101604052809291908181526020018280546106a89061208f565b80156106f55780601f106106ca576101008083540402835291602001916106f5565b820191906000526020600020905b8154815290600101906020018083116106d857829003601f168201915b50505050508152602001906001019061065d565b505050508152505090508060600151610729576000809250925050610747565b8060400151816020015161073d91906120ef565b9150818411159250505b9250929050565b61075661150a565b600260008373ffffffffffffffffffffffffffffffffffffffff1673ffffffffffffffffffffffffffffffffffffffff16815260200190815260200160002060030160009054906101000a900460ff166107e5576040517f08c379a00000000000000000000000000000000000000000000000000000000081526004016107dc90612180565b60405180910390fd5b600260008373ffffffffffffffffffffffffffffffffffffffff1673ffffffffffffffffffffffffffffffffffffffff168152602001908152602001600020600201548111610869576040517f08c379a0000000000000000000000000000000000000000000000000000000008152600401610860906121ec565b60405180910390fd5b80600260008473ffffffffffffffffffffffffffffffffffffffff1673ffffffffffffffffffffffffffffffffffffffff168152602001908152602001600020600101819055508173ffffffffffffffffffffffffffffffffffffffff167f776df4fafddc354619637d0d676de7026f8233114662c7f22e1a0e63eafcd429826040516108f6919061220c565b60405180910390a25050565b6003602052816000526040600020818154811061091e57600080fd5b906000526020600020016000915091509054906101000a900473ffffffffffffffffffffffffffffffffffffffff1681565b60026020528060005260406000206000915090508060000160009054906101000a900473ffffffffffffffffffffffffffffffffffffffff16908060010154908060020154908060030160009054906101000a900460ff16908060040154905085565b6060600360008373ffffffffffffffffffffffffffffffffffffffff1673ffffffffffffffffffffffffffffffffffffffff168152602001908152602001600020805480602002602001604051908101604052809291908181526020018280548015610a7457602002820191906000526020600020905b8160009054906101000a900473ffffffffffffffffffffffffffffffffffffffff1673ffffffffffffffffffffffffffffffffffffffff1681526020019060010190808311610a2a575b50505050509050919050565b610a8861150a565b600260008273ffffffffffffffffffffffffffffffffffffffff1673ffffffffffffffffffffffffffffffffffffffff16815260200190815260200160002060030160009054906101000a900460ff16610b17576040517f08c379a0000000000000000000000000000000000000000000000000000000008152600401610b0e90612180565b60405180910390fd5b6000600260008373ffffffffffffffffffffffffffffffffffffffff1673ffffffffffffffffffffffffffffffffffffffff16815260200190815260200160002060030160006101000a81548160ff0219169083151502179055508073ffffffffffffffffffffffffffffffffffffffff167f0e7b688930ca6441ef0e40f6646f9ac3498c202ce98fac01fd072c90e05c014660405160405180910390a250565b610bc061150a565b610bca6000611588565b565b6000600260003373ffffffffffffffffffffffffffffffffffffffff1673ffffffffffffffffffffffffffffffffffffffff16815260200190815260200160002090508060030160009054906101000a900460ff16610c60576040517f08c379a0000000000000000000000000000000000000000000000000000000008152600401610c5790612273565b60405180910390fd5b60008383604051602401610c75929190612293565b6040516020818303038152906040527fa9059cbb000000000000000000000000000000000000000000000000000000007bffffffffffffffffffffffffffffffffffffffffffffffffffffffff19166020820180517bffffffffffffffffffffffffffffffffffffffffffffffffffffffff838183161783525050505090503073ffffffffffffffffffffffffffffffffffffffff1663e6e6bd76866000846040518463ffffffff1660e01b8152600401610d3293929190612356565b600060405180830381600087803b158015610d4c57600080fd5b505af1158015610d60573d6000803e3d6000fd5b505050505050505050565b610d7361150a565b600260008273ffffffffffffffffffffffffffffffffffffffff1673ffffffffffffffffffffffffffffffffffffffff16815260200190815260200160002060030160009054906101000a900460ff16610e02576040517f08c379a0000000000000000000000000000000000000000000000000000000008152600401610df990612180565b60405180910390fd5b6000600260008373ffffffffffffffffffffffffffffffffffffffff1673ffffffffffffffffffffffffffffffffffffffff1681526020019081526020016000206002018190555050565b60008060009054906101000a900473ffffffffffffffffffffffffffffffffffffffff16905090565b610e7e61150a565b610e86610e4d565b73ffffffffffffffffffffffffffffffffffffffff166108fc479081150290604051600060405180830381858888f19350505050158015610ecb573d6000803e3d6000fd5b50565b610ed661164c565b6000600260003373ffffffffffffffffffffffffffffffffffffffff1673ffffffffffffffffffffffffffffffffffffffff16815260200190815260200160002090508060030160009054906101000a900460ff16610f6a576040517f08c379a0000000000000000000000000000000000000000000000000000000008152600401610f6190612273565b60405180910390fd5b8060010154848260020154610f7f9190612394565b1115610fc0576040517f08c379a0000000000000000000000000000000000000000000000000000000008152600401610fb790612414565b60405180910390fd5b83816002016000828254610fd49190612394565b9250508190555060008573ffffffffffffffffffffffffffffffffffffffff16858585604051611005929190612464565b60006040518083038185875af1925050503d8060008114611042576040519150601f19603f3d011682016040523d82523d6000602084013e611047565b606091505b505090508573ffffffffffffffffffffffffffffffffffffffff163373ffffffffffffffffffffffffffffffffffffffff167f3aab36143a7d16c607e30e2fc8a0e1d26867807faaffdb3a90f4613c7a359805878787866040516110ae94939291906124aa565b60405180910390a3806110f6576040517f08c379a00000000000000000000000000000000000000000000000000000000081526004016110ed90612536565b60405180910390fd5b505061110061169b565b50505050565b61110e61150a565b600073ffffffffffffffffffffffffffffffffffffffff168373ffffffffffffffffffffffffffffffffffffffff160361117d576040517f08c379a0000000000000000000000000000000000000000000000000000000008152600401611174906125a2565b60405180910390fd5b600082116111c0576040517f08c379a00000000000000000000000000000000000000000000000000000000081526004016111b790612634565b60405180910390fd5b600260008473ffffffffffffffffffffffffffffffffffffffff1673ffffffffffffffffffffffffffffffffffffffff16815260200190815260200160002060030160009054906101000a900460ff1615611250576040517f08c379a0000000000000000000000000000000000000000000000000000000008152600401611247906126a0565b60405180910390fd5b6040518060c001604052808473ffffffffffffffffffffffffffffffffffffffff1681526020018381526020016000815260200160011515815260200142815260200182815250600260008573ffffffffffffffffffffffffffffffffffffffff1673ffffffffffffffffffffffffffffffffffffffff16815260200190815260200160002060008201518160000160006101000a81548173ffffffffffffffffffffffffffffffffffffffff021916908373ffffffffffffffffffffffffffffffffffffffff160217905550602082015181600101556040820151816002015560608201518160030160006101000a81548160ff0219169083151502179055506080820151816004015560a08201518160050190805190602001906113779291906116fa565b50905050600360003373ffffffffffffffffffffffffffffffffffffffff1673ffffffffffffffffffffffffffffffffffffffff168152602001908152602001600020839080600181540180825580915050600190039060005260206000200160009091909190916101000a81548173ffffffffffffffffffffffffffffffffffffffff021916908373ffffffffffffffffffffffffffffffffffffffff1602179055508273ffffffffffffffffffffffffffffffffffffffff163373ffffffffffffffffffffffffffffffffffffffff167fbc8f8d0922b15aa4174f41d97a8c737321ba758dac6451e498d4c86b8ceb234b848460405161147a929190612746565b60405180910390a3505050565b61148f61150a565b600073ffffffffffffffffffffffffffffffffffffffff168173ffffffffffffffffffffffffffffffffffffffff16036114fe576040517f08c379a00000000000000000000000000000000000000000000000000000000081526004016114f5906127e8565b60405180910390fd5b61150781611588565b50565b6115126116a4565b73ffffffffffffffffffffffffffffffffffffffff16611530610e4d565b73ffffffffffffffffffffffffffffffffffffffff1614611586576040517f08c379a000000000000000000000000000000000000000000000000000000000815260040161157d90612854565b60405180910390fd5b565b60008060009054906101000a900473ffffffffffffffffffffffffffffffffffffffff169050816000806101000a81548173ffffffffffffffffffffffffffffffffffffffff021916908373ffffffffffffffffffffffffffffffffffffffff1602179055508173ffffffffffffffffffffffffffffffffffffffff168173ffffffffffffffffffffffffffffffffffffffff167f8be0079c531659141344cd1fd0a4f28419497f9722a3daafe3b4186f6b6457e060405160405180910390a35050565b600260015403611691576040517f08c379a0000000000000000000000000000000000000000000000000000000008152600401611688906128c0565b60405180910390fd5b6002600181905550565b60018081905550565b600033905090565b6040518060c00160405280600073ffffffffffffffffffffffffffffffffffffffff168152602001600081526020016000815260200160001515815260200160008152602001606081525090565b828054828255906000526020600020908101928215611742579160200282015b828111156117415782518290816117319190612a82565b509160200191906001019061171a565b5b50905061174f9190611753565b5090565b5b80821115611773576000818161176a9190611777565b50600101611754565b5090565b5080546117839061208f565b6000825580601f1061179557506117b4565b601f0160209004906000526020600020908101906117b391906117b7565b5b50565b5b808211156117d05760008160009055506001016117b8565b5090565b6000604051905090565b600080fd5b600080fd5b600073ffffffffffffffffffffffffffffffffffffffff82169050919050565b6000611813826117e8565b9050919050565b61182381611808565b811461182e57600080fd5b50565b6000813590506118408161181a565b92915050565b60006020828403121561185c5761185b6117de565b5b600061186a84828501611831565b91505092915050565b61187c81611808565b82525050565b6000819050919050565b61189581611882565b82525050565b60008115159050919050565b6118b08161189b565b82525050565b600081519050919050565b600082825260208201905092915050565b6000819050602082019050919050565b600081519050919050565b600082825260208201905092915050565b60005b8381101561191c578082015181840152602081019050611901565b60008484015250505050565b6000601f19601f8301169050919050565b6000611944826118e2565b61194e81856118ed565b935061195e8185602086016118fe565b61196781611928565b840191505092915050565b600061197e8383611939565b905092915050565b6000602082019050919050565b600061199e826118b6565b6119a881856118c1565b9350836020820285016119ba856118d2565b8060005b858110156119f657848403895281516119d78582611972565b94506119e283611986565b925060208a019950506001810190506119be565b50829750879550505050505092915050565b600060c083016000830151611a206000860182611873565b506020830151611a33602086018261188c565b506040830151611a46604086018261188c565b506060830151611a5960608601826118a7565b506080830151611a6c608086018261188c565b5060a083015184820360a0860152611a848282611993565b9150508091505092915050565b60006020820190508181036000830152611aab8184611a08565b905092915050565b611abc81611882565b8114611ac757600080fd5b50565b600081359050611ad981611ab3565b92915050565b60008060408385031215611af657611af56117de565b5b6000611b0485828601611831565b9250506020611b1585828601611aca565b9150509250929050565b611b288161189b565b82525050565b611b3781611882565b82525050565b6000604082019050611b526000830185611b1f565b611b5f6020830184611b2e565b9392505050565b611b6f81611808565b82525050565b6000602082019050611b8a6000830184611b66565b92915050565b600060a082019050611ba56000830188611b66565b611bb26020830187611b2e565b611bbf6040830186611b2e565b611bcc6060830185611b1f565b611bd96080830184611b2e565b9695505050505050565b600081519050919050565b600082825260208201905092915050565b6000819050602082019050919050565b6000611c1b8383611873565b60208301905092915050565b6000602082019050919050565b6000611c3f82611be3565b611c498185611bee565b9350611c5483611bff565b8060005b83811015611c85578151611c6c8882611c0f565b9750611c7783611c27565b925050600181019050611c58565b5085935050505092915050565b60006020820190508181036000830152611cac8184611c34565b905092915050565b600080600060608486031215611ccd57611ccc6117de565b5b6000611cdb86828701611831565b9350506020611cec86828701611831565b9250506040611cfd86828701611aca565b9150509250925092565b600080fd5b600080fd5b600080fd5b60008083601f840112611d2c57611d2b611d07565b5b8235905067ffffffffffffffff811115611d4957611d48611d0c565b5b602083019150836001820283011115611d6557611d64611d11565b5b9250929050565b60008060008060608587031215611d8657611d856117de565b5b6000611d9487828801611831565b9450506020611da587828801611aca565b935050604085013567ffffffffffffffff811115611dc657611dc56117e3565b5b611dd287828801611d16565b925092505092959194509250565b7f4e487b7100000000000000000000000000000000000000000000000000000000600052604160045260246000fd5b611e1882611928565b810181811067ffffffffffffffff82111715611e3757611e36611de0565b5b80604052505050565b6000611e4a6117d4565b9050611e568282611e0f565b919050565b600067ffffffffffffffff821115611e7657611e75611de0565b5b602082029050602081019050919050565b600080fd5b600067ffffffffffffffff821115611ea757611ea6611de0565b5b611eb082611928565b9050602081019050919050565b82818337600083830152505050565b6000611edf611eda84611e8c565b611e40565b905082815260208101848484011115611efb57611efa611e87565b5b611f06848285611ebd565b509392505050565b600082601f830112611f2357611f22611d07565b5b8135611f33848260208601611ecc565b91505092915050565b6000611f4f611f4a84611e5b565b611e40565b90508083825260208201905060208402830185811115611f7257611f71611d11565b5b835b81811015611fb957803567ffffffffffffffff811115611f9757611f96611d07565b5b808601611fa48982611f0e565b85526020850194505050602081019050611f74565b5050509392505050565b600082601f830112611fd857611fd7611d07565b5b8135611fe8848260208601611f3c565b91505092915050565b60008060006060848603121561200a576120096117de565b5b600061201886828701611831565b935050602061202986828701611aca565b925050604084013567ffffffffffffffff81111561204a576120496117e3565b5b61205686828701611fc3565b9150509250925092565b7f4e487b7100000000000000000000000000000000000000000000000000000000600052602260045260246000fd5b600060028204905060018216806120a757607f821691505b6020821081036120ba576120b9612060565b5b50919050565b7f4e487b7100000000000000000000000000000000000000000000000000000000600052601160045260246000fd5b60006120fa82611882565b915061210583611882565b925082820390508181111561211d5761211c6120c0565b5b92915050565b600082825260208201905092915050565b7f44656c6567617465206e6f7420666f756e640000000000000000000000000000600082015250565b600061216a601283612123565b915061217582612134565b602082019050919050565b600060208201905081810360008301526121998161215d565b9050919050565b7f4e6577206c696d697420746f6f206c6f77000000000000000000000000000000600082015250565b60006121d6601183612123565b91506121e1826121a0565b602082019050919050565b60006020820190508181036000830152612205816121c9565b9050919050565b60006020820190506122216000830184611b2e565b92915050565b7f44656c6567617465206e6f742061637469766500000000000000000000000000600082015250565b600061225d601383612123565b915061226882612227565b602082019050919050565b6000602082019050818103600083015261228c81612250565b9050919050565b60006040820190506122a86000830185611b66565b6122b56020830184611b2e565b9392505050565b6000819050919050565b6000819050919050565b60006122eb6122e66122e1846122bc565b6122c6565b611882565b9050919050565b6122fb816122d0565b82525050565b600081519050919050565b600082825260208201905092915050565b600061232882612301565b612332818561230c565b93506123428185602086016118fe565b61234b81611928565b840191505092915050565b600060608201905061236b6000830186611b66565b61237860208301856122f2565b818103604083015261238a818461231d565b9050949350505050565b600061239f82611882565b91506123aa83611882565b92508282019050808211156123c2576123c16120c0565b5b92915050565b7f45786365656473207370656e64696e67206c696d697400000000000000000000600082015250565b60006123fe601683612123565b9150612409826123c8565b602082019050919050565b6000602082019050818103600083015261242d816123f1565b9050919050565b600081905092915050565b600061244b8385612434565b9350612458838584611ebd565b82840190509392505050565b600061247182848661243f565b91508190509392505050565b6000612489838561230c565b9350612496838584611ebd565b61249f83611928565b840190509392505050565b60006060820190506124bf6000830187611b2e565b81810360208301526124d281858761247d565b90506124e16040830184611b1f565b95945050505050565b7f44656c65676174652063616c6c206661696c6564000000000000000000000000600082015250565b6000612520601483612123565b915061252b826124ea565b602082019050919050565b6000602082019050818103600083015261254f81612513565b9050919050565b7f496e76616c69642064656c656761746520616464726573730000000000000000600082015250565b600061258c601883612123565b915061259782612556565b602082019050919050565b600060208201905081810360008301526125bb8161257f565b9050919050565b7f5370656e64696e67206c696d6974206d7573742062652067726561746572207460008201527f68616e2030000000000000000000000000000000000000000000000000000000602082015250565b600061261e602583612123565b9150612629826125c2565b604082019050919050565b6000602082019050818103600083015261264d81612611565b9050919050565b7f44656c656761746520616c726561647920657869737473000000000000000000600082015250565b600061268a601783612123565b915061269582612654565b602082019050919050565b600060208201905081810360008301526126b98161267d565b9050919050565b600082825260208201905092915050565b60006126dc826118b6565b6126e681856126c0565b9350836020820285016126f8856118d2565b8060005b8581101561273457848403895281516127158582611972565b945061272083611986565b925060208a019950506001810190506126fc565b50829750879550505050505092915050565b600060408201905061275b6000830185611b2e565b818103602083015261276d81846126d1565b90509392505050565b7f4f776e61626c653a206e6577206f776e657220697320746865207a65726f206160008201527f6464726573730000000000000000000000000000000000000000000000000000602082015250565b60006127d2602683612123565b91506127dd82612776565b604082019050919050565b60006020820190508181036000830152612801816127c5565b9050919050565b7f4f776e61626c653a2063616c6c6572206973206e6f7420746865206f776e6572600082015250565b600061283e602083612123565b915061284982612808565b602082019050919050565b6000602082019050818103600083015261286d81612831565b9050919050565b7f5265656e7472616e637947756172643a207265656e7472616e742063616c6c00600082015250565b60006128aa601f83612123565b91506128b582612874565b602082019050919050565b600060208201905081810360008301526128d98161289d565b9050919050565b60008190508160005260206000209050919050565b60006020601f8301049050919050565b600082821b905092915050565b6000600883026129427fffffffffffffffffffffffffffffffffffffffffffffffffffffffffffffffff82612905565b61294c8683612905565b95508019841693508086168417925050509392505050565b600061297f61297a61297584611882565b6122c6565b611882565b9050919050565b6000819050919050565b61299983612964565b6129ad6129a582612986565b848454612912565b825550505050565b600090565b6129c26129b5565b6129cd818484612990565b505050565b5b818110156129f1576129e66000826129ba565b6001810190506129d3565b5050565b601f821115612a3657612a07816128e0565b612a10846128f5565b81016020851015612a1f578190505b612a33612a2b856128f5565b8301826129d2565b50505b505050565b600082821c905092915050565b6000612a5960001984600802612a3b565b1980831691505092915050565b6000612a728383612a48565b9150826002028217905092915050565b612a8b826118e2565b67ffffffffffffffff811115612aa457612aa3611de0565b5b612aae825461208f565b612ab98282856129f5565b600060209050601f831160018114612aec5760008415612ada578287015190505b612ae48582612a66565b865550612b4c565b601f198416612afa866128e0565b60005b82811015612b2257848901518255600182019150602085019450602081019050612afd565b86831015612b3f5784890151612b3b601f891682612a48565b8355505b6001600288020188555050505b50505050505056fea264697066735822122014789132cb439c63a3b92c66424198cf6eb14e9b4bad1bc9f63c6d3f1b006c2d64736f6c634300081c0033",
  "linkReferences": {},
  "deployedLinkReferences": {}
}