{
  "_format": "hh-sol-artifact-1",
  "contractName": "KadenaDEX",
  "sourceName": "contracts/KadenaDEX.sol",
  "abi": [
    {
      "anonymous": false,
      "inputs": [
        {
          "indexed": true,
          "internalType": "uint256",
          "name": "bridgeId",
          "type": "uint256"
        }
      ],
      "name": "BridgeCompleted",
      "type": "event"
    },
    {
      "anonymous": false,
      "inputs": [
        {
          "indexed": true,
          "internalType": "uint256",
          "name": "bridgeId",
          "type": "uint256"
        },
        {
          "indexed": true,
          "internalType": "address",
          "name": "token",
          "type": "address"
        },
        {
          "indexed": false,
          "internalType": "uint256",
          "name": "amount",
          "type": "uint256"
        },
        {
          "indexed": false,
          "internalType": "uint256",
          "name": "targetChainId",
          "type": "uint256"
        },
        {
          "indexed": true,
          "internalType": "address",
          "name": "recipient",
          "type": "address"
        }
      ],
      "name": "BridgeInitiated",
      "type": "event"
    },
    {
      "anonymous": false,
      "inputs": [
        {
          "indexed": true,
          "internalType": "address",
          "name": "tokenA",
          "type": "address"
        },
        {
          "indexed": true,
          "internalType": "address",
          "name": "tokenB",
          "type": "address"
        },
        {
          "indexed": false,
          "internalType": "uint256",
          "name": "amountA",
          "type": "uint256"
        },
        {
          "indexed": false,
          "internalType": "uint256",
          "name": "amountB",
          "type": "uint256"
        },
        {
          "indexed": true,
          "internalType": "address",
          "name": "provider",
          "type": "address"
        }
      ],
      "name": "LiquidityAdded",
      "type": "event"
    },
    {
      "anonymous": false,
      "inputs": [
        {
          "indexed": true,
          "internalType": "address",
          "name": "previousOwner",
          "type": "address"
        },
        {
          "indexed": true,
          "internalType": "address",
          "name": "newOwner",
          "type": "address"
        }
      ],
      "name": "OwnershipTransferred",
      "type": "event"
    },
    {
      "anonymous": false,
      "inputs": [
        {
          "indexed": true,
          "internalType": "address",
          "name": "tokenIn",
          "type": "address"
        },
        {
          "indexed": true,
          "internalType": "address",
          "name": "tokenOut",
          "type": "address"
        },
        {
          "indexed": false,
          "internalType": "uint256",
          "name": "amountIn",
          "type": "uint256"
        },
        {
          "indexed": false,
          "internalType": "uint256",
          "name": "amountOut",
          "type": "uint256"
        },
        {
          "indexed": true,
          "internalType": "address",
          "name": "user",
          "type": "address"
        }
      ],
      "name": "SwapExecuted",
      "type": "event"
    },
    {
      "anonymous": false,
      "inputs": [
        {
          "indexed": true,
          "internalType": "address",
          "name": "token",
          "type": "address"
        },
        {
          "indexed": false,
          "internalType": "string",
          "name": "symbol",
          "type": "string"
        },
        {
          "indexed": false,
          "internalType": "uint8",
          "name": "decimals",
          "type": "uint8"
        }
      ],
      "name": "TokenAdded",
      "type": "event"
    },
    {
      "inputs": [
        {
          "internalType": "address",
          "name": "tokenA",
          "type": "address"
        },
        {
          "internalType": "address",
          "name": "tokenB",
          "type": "address"
        },
        {
          "internalType": "uint256",
          "name": "amountA",
          "type": "uint256"
        },
        {
          "internalType": "uint256",
          "name": "amountB",
          "type": "uint256"
        }
      ],
      "name": "addLiquidity",
      "outputs": [],
      "stateMutability": "payable",
      "type": "function"
    },
    {
      "inputs": [
        {
          "internalType": "address",
          "name": "tokenAddress",
          "type": "address"
        },
        {
          "internalType": "string",
          "name": "symbol",
          "type": "string"
        },
        {
          "internalType": "uint8",
          "name": "decimals",
          "type": "uint8"
        }
      ],
      "name": "addToken",
      "outputs": [],
      "stateMutability": "nonpayable",
      "type": "function"
    },
    {
      "inputs": [],
      "name": "bridgeCounter",
      "outputs": [
        {
          "internalType": "uint256",
          "name": "",
          "type": "uint256"
        }
      ],
      "stateMutability": "view",
      "type": "function"
    },
    {
      "inputs": [
        {
          "internalType": "uint256",
          "name": "",
          "type": "uint256"
        }
      ],
      "name": "bridges",
      "outputs": [
        {
          "internalType": "address",
          "name": "token",
          "type": "address"
        },
        {
          "internalType": "uint256",
          "name": "amount",
          "type": "uint256"
        },
        {
          "internalType": "uint256",
          "name": "targetChainId",
          "type": "uint256"
        },
        {
          "internalType": "address",
          "name": "recipient",
          "type": "address"
        },
        {
          "internalType": "bool",
          "name": "isProcessed",
          "type": "bool"
        },
        {
          "internalType": "uint256",
          "name": "timestamp",
          "type": "uint256"
        }
      ],
      "stateMutability": "view",
      "type": "function"
    },
    {
      "inputs": [
        {
          "internalType": "uint256",
          "name": "bridgeId",
          "type": "uint256"
        }
      ],
      "name": "completeBridge",
      "outputs": [],
      "stateMutability": "nonpayable",
      "type": "function"
    },
    {
      "inputs": [],
      "name": "getAllTokens",
      "outputs": [
        {
          "internalType": "address[]",
          "name": "tokenAddresses",
          "type": "address[]"
        }
      ],
      "stateMutability": "view",
      "type": "function"
    },
    {
      "inputs": [
        {
          "internalType": "uint256",
          "name": "bridgeId",
          "type": "uint256"
        }
      ],
      "name": "getBridgeInfo",
      "outputs": [
        {
          "components": [
            {
              "internalType": "address",
              "name": "token",
              "type": "address"
            },
            {
              "internalType": "uint256",
              "name": "amount",
              "type": "uint256"
            },
            {
              "internalType": "uint256",
              "name": "targetChainId",
              "type": "uint256"
            },
            {
              "internalType": "address",
              "name": "recipient",
              "type": "address"
            },
            {
              "internalType": "bool",
              "name": "isProcessed",
              "type": "bool"
            },
            {
              "internalType": "uint256",
              "name": "timestamp",
              "type": "uint256"
            }
          ],
          "internalType": "struct KadenaDEX.BridgeInfo",
          "name": "bridge",
          "type": "tuple"
        }
      ],
      "stateMutability": "view",
      "type": "function"
    },
    {
      "inputs": [
        {
          "internalType": "address",
          "name": "tokenA",
          "type": "address"
        },
        {
          "internalType": "address",
          "name": "tokenB",
          "type": "address"
        }
      ],
      "name": "getSwapPair",
      "outputs": [
        {
          "components": [
            {
              "internalType": "address",
              "name": "tokenA",
              "type": "address"
            },
            {
              "internalType": "address",
              "name": "tokenB",
              "type": "address"
            },
            {
              "internalType": "uint256",
              "name": "reserveA",
              "type": "uint256"
            },
            {
              "internalType": "uint256",
              "name": "reserveB",
              "type": "uint256"
            },
            {
              "internalType": "uint256",
              "name": "totalSupply",
              "type": "uint256"
            },
            {
              "internalType": "bool",
              "name": "isActive",
              "type": "bool"
            }
          ],
          "internalType": "struct KadenaDEX.SwapPair",
          "name": "pair",
          "type": "tuple"
        }
      ],
      "stateMutability": "view",
      "type": "function"
    },
    {
      "inputs": [
        {
          "internalType": "address",
          "name": "token",
          "type": "address"
        },
        {
          "internalType": "uint256",
          "name": "amount",
          "type": "uint256"
        },
        {
          "internalType": "uint256",
          "name": "targetChainId",
          "type": "uint256"
        },
        {
          "internalType": "address",
          "name": "recipient",
          "type": "address"
        }
      ],
      "name": "initiateBridge",
      "outputs": [],
      "stateMutability": "payable",
      "type": "function"
    },
    {
      "inputs": [],
      "name": "owner",
      "outputs": [
        {
          "internalType": "address",
          "name": "",
          "type": "address"
        }
      ],
      "stateMutability": "view",
      "type": "function"
    },
    {
      "inputs": [],
      "name": "renounceOwnership",
      "outputs": [],
      "stateMutability": "nonpayable",
      "type": "function"
    },
    {
      "inputs": [
        {
          "internalType": "address",
          "name": "tokenIn",
          "type": "address"
        },
        {
          "internalType": "address",
          "name": "tokenOut",
          "type": "address"
        },
        {
          "internalType": "uint256",
          "name": "amountIn",
          "type": "uint256"
        },
        {
          "internalType": "uint256",
          "name": "minAmountOut",
          "type": "uint256"
        }
      ],
      "name": "swap",
      "outputs": [],
      "stateMutability": "payable",
      "type": "function"
    },
    {
      "inputs": [
        {
          "internalType": "bytes32",
          "name": "",
          "type": "bytes32"
        }
      ],
      "name": "swapPairs",
      "outputs": [
        {
          "internalType": "address",
          "name": "tokenA",
          "type": "address"
        },
        {
          "internalType": "address",
          "name": "tokenB",
          "type": "address"
        },
        {
          "internalType": "uint256",
          "name": "reserveA",
          "type": "uint256"
        },
        {
          "internalType": "uint256",
          "name": "reserveB",
          "type": "uint256"
        },
        {
          "internalType": "uint256",
          "name": "totalSupply",
          "type": "uint256"
        },
        {
          "internalType": "bool",
          "name": "isActive",
          "type": "bool"
        }
      ],
      "stateMutability": "view",
      "type": "function"
    },
    {
      "inputs": [
        {
          "internalType": "uint256",
          "name": "",
          "type": "uint256"
        }
      ],
      "name": "tokenList",
      "outputs": [
        {
          "internalType": "address",
          "name": "",
          "type": "address"
        }
      ],
      "stateMutability": "view",
      "type": "function"
    },
    {
      "inputs": [
        {
          "internalType": "address",
          "name": "",
          "type": "address"
        }
      ],
      "name": "tokens",
      "outputs": [
        {
          "internalType": "address",
          "name": "tokenAddress",
          "type": "address"
        },
        {
          "internalType": "string",
          "name": "symbol",
          "type": "string"
        },
        {
          "internalType": "uint8",
          "name": "decimals",
          "type": "uint8"
        },
        {
          "internalType": "bool",
          "name": "isActive",
          "type": "bool"
        },
        {
          "internalType": "uint256",
          "name": "totalLiquidity",
          "type": "uint256"
        }
      ],
      "stateMutability": "view",
      "type": "function"
    },
    {
      "inputs": [
        {
          "internalType": "address",
          "name": "newOwner",
          "type": "address"
        }
      ],
      "name": "transferOwnership",
      "outputs": [],
      "stateMutability": "nonpayable",
      "type": "function"
    },
    {
      "stateMutability": "payable",
      "type": "receive"
    }
  ],
  "bytecode": "0x608060405234801561001057600080fd5b5061002d61002261003960201b60201c565b61004160201b60201c565b60018081905550610105565b600033905090565b60008060009054906101000a900473ffffffffffffffffffffffffffffffffffffffff169050816000806101000a81548173ffffffffffffffffffffffffffffffffffffffff021916908373ffffffffffffffffffffffffffffffffffffffff1602179055508173ffffffffffffffffffffffffffffffffffffffff168173ffffffffffffffffffffffffffffffffffffffff167f8be0079c531659141344cd1fd0a4f28419497f9722a3daafe3b4186f6b6457e060405160405180910390a35050565b613555806101146000396000f3fe6080604052600436106100f75760003560e01c80639ead72221161008a578063de6a48e511610059578063de6a48e514610337578063e486033914610360578063f2fde38b146103a1578063fe029156146103ca576100fe565b80639ead72221461025a578063a3c4470514610297578063a833fc43146102d9578063cf6c62ea1461031b576100fe565b80637d1c0300116100c65780637d1c0300146101ad5780637dbbd71d146101c95780637f6316b6146102065780638da5cb5b1461022f576100fe565b80632a5c792a1461010357806350c748431461012e57806351145aed14610159578063715018a614610196576100fe565b366100fe57005b600080fd5b34801561010f57600080fd5b506101186103e6565b60405161012591906120a0565b60405180910390f35b34801561013a57600080fd5b50610143610474565b60405161015091906120db565b60405180910390f35b34801561016557600080fd5b50610180600480360381019061017b9190612136565b61047a565b60405161018d9190612208565b60405180910390f35b3480156101a257600080fd5b506101ab61058c565b005b6101c760048036038101906101c2919061224f565b6105a0565b005b3480156101d557600080fd5b506101f060048036038101906101eb91906122b6565b610928565b6040516101fd9190612371565b60405180910390f35b34801561021257600080fd5b5061022d60048036038101906102289190612136565b610a69565b005b34801561023b57600080fd5b50610244610b7c565b604051610251919061239b565b60405180910390f35b34801561026657600080fd5b50610281600480360381019061027c9190612136565b610ba5565b60405161028e919061239b565b60405180910390f35b3480156102a357600080fd5b506102be60048036038101906102b99190612136565b610be4565b6040516102d0969594939291906123c5565b60405180910390f35b3480156102e557600080fd5b5061030060048036038101906102fb919061245c565b610c6d565b60405161031296959493929190612489565b60405180910390f35b610335600480360381019061033091906124ea565b610cf6565b005b34801561034357600080fd5b5061035e600480360381019061035991906126d0565b61139d565b005b34801561036c57600080fd5b506103876004803603810190610382919061273f565b61168a565b6040516103989594939291906127fa565b60405180910390f35b3480156103ad57600080fd5b506103c860048036038101906103c3919061273f565b611782565b005b6103e460048036038101906103df91906124ea565b611805565b005b6060600580548060200260200160405190810160405280929190818152602001828054801561046a57602002820191906000526020600020905b8160009054906101000a900473ffffffffffffffffffffffffffffffffffffffff1673ffffffffffffffffffffffffffffffffffffffff1681526020019060010190808311610420575b5050505050905090565b60065481565b610482611ee8565b600460008381526020019081526020016000206040518060c00160405290816000820160009054906101000a900473ffffffffffffffffffffffffffffffffffffffff1673ffffffffffffffffffffffffffffffffffffffff1673ffffffffffffffffffffffffffffffffffffffff16815260200160018201548152602001600282015481526020016003820160009054906101000a900473ffffffffffffffffffffffffffffffffffffffff1673ffffffffffffffffffffffffffffffffffffffff1673ffffffffffffffffffffffffffffffffffffffff1681526020016003820160149054906101000a900460ff161515151581526020016004820154815250509050919050565b610594611d46565b61059e6000611dc4565b565b6105a8611e88565b600083116105eb576040517f08c379a00000000000000000000000000000000000000000000000000000000081526004016105e2906128a0565b60405180910390fd5b600073ffffffffffffffffffffffffffffffffffffffff168173ffffffffffffffffffffffffffffffffffffffff160361065a576040517f08c379a00000000000000000000000000000000000000000000000000000000081526004016106519061290c565b60405180910390fd5b6006600081548092919061066d9061295b565b91905055506040518060c001604052808573ffffffffffffffffffffffffffffffffffffffff1681526020018481526020018381526020018273ffffffffffffffffffffffffffffffffffffffff1681526020016000151581526020014281525060046000600654815260200190815260200160002060008201518160000160006101000a81548173ffffffffffffffffffffffffffffffffffffffff021916908373ffffffffffffffffffffffffffffffffffffffff160217905550602082015181600101556040820151816002015560608201518160030160006101000a81548173ffffffffffffffffffffffffffffffffffffffff021916908373ffffffffffffffffffffffffffffffffffffffff16021790555060808201518160030160146101000a81548160ff02191690831515021790555060a08201518160040155905050600073ffffffffffffffffffffffffffffffffffffffff168473ffffffffffffffffffffffffffffffffffffffff161461086c578373ffffffffffffffffffffffffffffffffffffffff166323b872dd3330866040518463ffffffff1660e01b8152600401610823939291906129a3565b6020604051808303816000875af1158015610842573d6000803e3d6000fd5b505050506040513d601f19601f820116820180604052508101906108669190612a06565b506108b0565b823410156108af576040517f08c379a00000000000000000000000000000000000000000000000000000000081526004016108a690612a7f565b60405180910390fd5b5b8073ffffffffffffffffffffffffffffffffffffffff168473ffffffffffffffffffffffffffffffffffffffff166006547f9fc29e8b45fed99b44e29431e60ab6dfd85c5dfab98aeea5d5bc8de8591b1e7f8686604051610912929190612a9f565b60405180910390a4610922611ed7565b50505050565b610930611f4c565b60008383604051602001610945929190612b10565b604051602081830303815290604052805190602001209050600360008281526020019081526020016000206040518060c00160405290816000820160009054906101000a900473ffffffffffffffffffffffffffffffffffffffff1673ffffffffffffffffffffffffffffffffffffffff1673ffffffffffffffffffffffffffffffffffffffff1681526020016001820160009054906101000a900473ffffffffffffffffffffffffffffffffffffffff1673ffffffffffffffffffffffffffffffffffffffff1673ffffffffffffffffffffffffffffffffffffffff1681526020016002820154815260200160038201548152602001600482015481526020016005820160009054906101000a900460ff16151515158152505091505092915050565b610a71611d46565b60006004600083815260200190815260200160002090508060030160149054906101000a900460ff1615610ada576040517f08c379a0000000000000000000000000000000000000000000000000000000008152600401610ad190612b88565b60405180910390fd5b610e108160040154610aec9190612ba8565b421015610b2e576040517f08c379a0000000000000000000000000000000000000000000000000000000008152600401610b2590612c28565b60405180910390fd5b60018160030160146101000a81548160ff021916908315150217905550817fb43ef863cae2fe0510eb9abbbcfa3d2a3794edcec07628318d5a04f4a3adf9cc60405160405180910390a25050565b60008060009054906101000a900473ffffffffffffffffffffffffffffffffffffffff16905090565b60058181548110610bb557600080fd5b906000526020600020016000915054906101000a900473ffffffffffffffffffffffffffffffffffffffff1681565b60046020528060005260406000206000915090508060000160009054906101000a900473ffffffffffffffffffffffffffffffffffffffff16908060010154908060020154908060030160009054906101000a900473ffffffffffffffffffffffffffffffffffffffff16908060030160149054906101000a900460ff16908060040154905086565b60036020528060005260406000206000915090508060000160009054906101000a900473ffffffffffffffffffffffffffffffffffffffff16908060010160009054906101000a900473ffffffffffffffffffffffffffffffffffffffff16908060020154908060030154908060040154908060050160009054906101000a900460ff16905086565b610cfe611e88565b600260008573ffffffffffffffffffffffffffffffffffffffff1673ffffffffffffffffffffffffffffffffffffffff16815260200190815260200160002060020160019054906101000a900460ff16610d8d576040517f08c379a0000000000000000000000000000000000000000000000000000000008152600401610d8490612c94565b60405180910390fd5b600260008473ffffffffffffffffffffffffffffffffffffffff1673ffffffffffffffffffffffffffffffffffffffff16815260200190815260200160002060020160019054906101000a900460ff16610e1c576040517f08c379a0000000000000000000000000000000000000000000000000000000008152600401610e1390612d00565b60405180910390fd5b600082118015610e2c5750600081115b610e6b576040517f08c379a0000000000000000000000000000000000000000000000000000000008152600401610e6290612d6c565b60405180910390fd5b60008484604051602001610e80929190612b10565b6040516020818303038152906040528051906020012090506000600360008381526020019081526020016000209050600073ffffffffffffffffffffffffffffffffffffffff168160000160009054906101000a900473ffffffffffffffffffffffffffffffffffffffff1673ffffffffffffffffffffffffffffffffffffffff1603610fcc57858160000160006101000a81548173ffffffffffffffffffffffffffffffffffffffff021916908373ffffffffffffffffffffffffffffffffffffffff160217905550848160010160006101000a81548173ffffffffffffffffffffffffffffffffffffffff021916908373ffffffffffffffffffffffffffffffffffffffff1602179055508381600201819055508281600301819055506103e8816004018190555060018160050160006101000a81548160ff0219169083151502179055506110a9565b8060050160009054906101000a900460ff1661101d576040517f08c379a000000000000000000000000000000000000000000000000000000000815260040161101490612dd8565b60405180910390fd5b600081600301548260020154856110349190612df8565b61103e9190612e69565b905084811161104f57809450611071565b81600201548260030154866110649190612df8565b61106e9190612e69565b93505b848260020160008282546110859190612ba8565b92505081905550838260030160008282546110a09190612ba8565b92505081905550505b600073ffffffffffffffffffffffffffffffffffffffff168673ffffffffffffffffffffffffffffffffffffffff1614611163578573ffffffffffffffffffffffffffffffffffffffff166323b872dd3330876040518463ffffffff1660e01b815260040161111a939291906129a3565b6020604051808303816000875af1158015611139573d6000803e3d6000fd5b505050506040513d601f19601f8201168201806040525081019061115d9190612a06565b506111a7565b833410156111a6576040517f08c379a000000000000000000000000000000000000000000000000000000000815260040161119d90612a7f565b60405180910390fd5b5b600073ffffffffffffffffffffffffffffffffffffffff168573ffffffffffffffffffffffffffffffffffffffff161461125d578473ffffffffffffffffffffffffffffffffffffffff166323b872dd3330866040518463ffffffff1660e01b8152600401611218939291906129a3565b6020604051808303816000875af1158015611237573d6000803e3d6000fd5b505050506040513d601f19601f8201168201806040525081019061125b9190612a06565b505b83600260008873ffffffffffffffffffffffffffffffffffffffff1673ffffffffffffffffffffffffffffffffffffffff16815260200190815260200160002060030160008282546112af9190612ba8565b9250508190555082600260008773ffffffffffffffffffffffffffffffffffffffff1673ffffffffffffffffffffffffffffffffffffffff16815260200190815260200160002060030160008282546113089190612ba8565b925050819055503373ffffffffffffffffffffffffffffffffffffffff168573ffffffffffffffffffffffffffffffffffffffff168773ffffffffffffffffffffffffffffffffffffffff167f6c663e88dcc86a651e6a0758b9902b496aa7e7a85977182c8fac129a8ad15ed38787604051611385929190612a9f565b60405180910390a45050611397611ed7565b50505050565b6113a5611d46565b600073ffffffffffffffffffffffffffffffffffffffff168373ffffffffffffffffffffffffffffffffffffffff1603611414576040517f08c379a000000000000000000000000000000000000000000000000000000000815260040161140b90612ee6565b60405180910390fd5b600260008473ffffffffffffffffffffffffffffffffffffffff1673ffffffffffffffffffffffffffffffffffffffff16815260200190815260200160002060020160019054906101000a900460ff16156114a4576040517f08c379a000000000000000000000000000000000000000000000000000000000815260040161149b90612f52565b60405180910390fd5b6040518060a001604052808473ffffffffffffffffffffffffffffffffffffffff1681526020018381526020018260ff1681526020016001151581526020016000815250600260008573ffffffffffffffffffffffffffffffffffffffff1673ffffffffffffffffffffffffffffffffffffffff16815260200190815260200160002060008201518160000160006101000a81548173ffffffffffffffffffffffffffffffffffffffff021916908373ffffffffffffffffffffffffffffffffffffffff1602179055506020820151816001019081611583919061317e565b5060408201518160020160006101000a81548160ff021916908360ff16021790555060608201518160020160016101000a81548160ff021916908315150217905550608082015181600301559050506005839080600181540180825580915050600190039060005260206000200160009091909190916101000a81548173ffffffffffffffffffffffffffffffffffffffff021916908373ffffffffffffffffffffffffffffffffffffffff1602179055508273ffffffffffffffffffffffffffffffffffffffff167f3be0896d4cd1d645bdae8ade25a54bcdbb2c685ce55ac7e7bead95d0802b32de838360405161167d929190613250565b60405180910390a2505050565b60026020528060005260406000206000915090508060000160009054906101000a900473ffffffffffffffffffffffffffffffffffffffff16908060010180546116d390612fa1565b80601f01602080910402602001604051908101604052809291908181526020018280546116ff90612fa1565b801561174c5780601f106117215761010080835404028352916020019161174c565b820191906000526020600020905b81548152906001019060200180831161172f57829003601f168201915b5050505050908060020160009054906101000a900460ff16908060020160019054906101000a900460ff16908060030154905085565b61178a611d46565b600073ffffffffffffffffffffffffffffffffffffffff168173ffffffffffffffffffffffffffffffffffffffff16036117f9576040517f08c379a00000000000000000000000000000000000000000000000000000000081526004016117f0906132f2565b60405180910390fd5b61180281611dc4565b50565b61180d611e88565b60008211611850576040517f08c379a0000000000000000000000000000000000000000000000000000000008152600401611847906128a0565b60405180910390fd5b8273ffffffffffffffffffffffffffffffffffffffff168473ffffffffffffffffffffffffffffffffffffffff16036118be576040517f08c379a00000000000000000000000000000000000000000000000000000000081526004016118b59061335e565b60405180910390fd5b600084846040516020016118d3929190612b10565b60405160208183030381529060405280519060200120905060006003600083815260200190815260200160002090508060050160009054906101000a900460ff16611953576040517f08c379a000000000000000000000000000000000000000000000000000000000815260040161194a90612dd8565b60405180910390fd5b60008673ffffffffffffffffffffffffffffffffffffffff168260000160009054906101000a900473ffffffffffffffffffffffffffffffffffffffff1673ffffffffffffffffffffffffffffffffffffffff1603611a13578482600201546119bc9190612ba8565b8260030154866119cc9190612df8565b6119d69190612e69565b9050848260020160008282546119ec9190612ba8565b9250508190555080826003016000828254611a07919061337e565b92505081905550611a76565b848260030154611a239190612ba8565b826002015486611a339190612df8565b611a3d9190612e69565b905084826003016000828254611a539190612ba8565b9250508190555080826002016000828254611a6e919061337e565b925050819055505b83811015611ab9576040517f08c379a0000000000000000000000000000000000000000000000000000000008152600401611ab0906133fe565b60405180910390fd5b600073ffffffffffffffffffffffffffffffffffffffff168773ffffffffffffffffffffffffffffffffffffffff1614611b73578673ffffffffffffffffffffffffffffffffffffffff166323b872dd3330886040518463ffffffff1660e01b8152600401611b2a939291906129a3565b6020604051808303816000875af1158015611b49573d6000803e3d6000fd5b505050506040513d601f19601f82011682018060405250810190611b6d9190612a06565b50611bb7565b84341015611bb6576040517f08c379a0000000000000000000000000000000000000000000000000000000008152600401611bad90612a7f565b60405180910390fd5b5b600073ffffffffffffffffffffffffffffffffffffffff168673ffffffffffffffffffffffffffffffffffffffff1614611c6f578573ffffffffffffffffffffffffffffffffffffffff1663a9059cbb33836040518363ffffffff1660e01b8152600401611c2692919061341e565b6020604051808303816000875af1158015611c45573d6000803e3d6000fd5b505050506040513d601f19601f82011682018060405250810190611c699190612a06565b50611cb7565b3373ffffffffffffffffffffffffffffffffffffffff166108fc829081150290604051600060405180830381858888f19350505050158015611cb5573d6000803e3d6000fd5b505b3373ffffffffffffffffffffffffffffffffffffffff168673ffffffffffffffffffffffffffffffffffffffff168873ffffffffffffffffffffffffffffffffffffffff167fee4825a7988c5519a874be79f2a84d13d02cfe5f74cad97cda2d5b55d2b13bfa8885604051611d2d929190612a9f565b60405180910390a4505050611d40611ed7565b50505050565b611d4e611ee0565b73ffffffffffffffffffffffffffffffffffffffff16611d6c610b7c565b73ffffffffffffffffffffffffffffffffffffffff1614611dc2576040517f08c379a0000000000000000000000000000000000000000000000000000000008152600401611db990613493565b60405180910390fd5b565b60008060009054906101000a900473ffffffffffffffffffffffffffffffffffffffff169050816000806101000a81548173ffffffffffffffffffffffffffffffffffffffff021916908373ffffffffffffffffffffffffffffffffffffffff1602179055508173ffffffffffffffffffffffffffffffffffffffff168173ffffffffffffffffffffffffffffffffffffffff167f8be0079c531659141344cd1fd0a4f28419497f9722a3daafe3b4186f6b6457e060405160405180910390a35050565b600260015403611ecd576040517f08c379a0000000000000000000000000000000000000000000000000000000008152600401611ec4906134ff565b60405180910390fd5b6002600181905550565b60018081905550565b600033905090565b6040518060c00160405280600073ffffffffffffffffffffffffffffffffffffffff1681526020016000815260200160008152602001600073ffffffffffffffffffffffffffffffffffffffff168152602001600015158152602001600081525090565b6040518060c00160405280600073ffffffffffffffffffffffffffffffffffffffff168152602001600073ffffffffffffffffffffffffffffffffffffffff1681526020016000815260200160008152602001600081526020016000151581525090565b600081519050919050565b600082825260208201905092915050565b6000819050602082019050919050565b600073ffffffffffffffffffffffffffffffffffffffff82169050919050565b600061200782611fdc565b9050919050565b61201781611ffc565b82525050565b6000612029838361200e565b60208301905092915050565b6000602082019050919050565b600061204d82611fb0565b6120578185611fbb565b935061206283611fcc565b8060005b8381101561209357815161207a888261201d565b975061208583612035565b925050600181019050612066565b5085935050505092915050565b600060208201905081810360008301526120ba8184612042565b905092915050565b6000819050919050565b6120d5816120c2565b82525050565b60006020820190506120f060008301846120cc565b92915050565b6000604051905090565b600080fd5b600080fd5b612113816120c2565b811461211e57600080fd5b50565b6000813590506121308161210a565b92915050565b60006020828403121561214c5761214b612100565b5b600061215a84828501612121565b91505092915050565b61216c816120c2565b82525050565b60008115159050919050565b61218781612172565b82525050565b60c0820160008201516121a3600085018261200e565b5060208201516121b66020850182612163565b5060408201516121c96040850182612163565b5060608201516121dc606085018261200e565b5060808201516121ef608085018261217e565b5060a082015161220260a0850182612163565b50505050565b600060c08201905061221d600083018461218d565b92915050565b61222c81611ffc565b811461223757600080fd5b50565b60008135905061224981612223565b92915050565b6000806000806080858703121561226957612268612100565b5b60006122778782880161223a565b945050602061228887828801612121565b935050604061229987828801612121565b92505060606122aa8782880161223a565b91505092959194509250565b600080604083850312156122cd576122cc612100565b5b60006122db8582860161223a565b92505060206122ec8582860161223a565b9150509250929050565b60c08201600082015161230c600085018261200e565b50602082015161231f602085018261200e565b5060408201516123326040850182612163565b5060608201516123456060850182612163565b5060808201516123586080850182612163565b5060a082015161236b60a085018261217e565b50505050565b600060c08201905061238660008301846122f6565b92915050565b61239581611ffc565b82525050565b60006020820190506123b0600083018461238c565b92915050565b6123bf81612172565b82525050565b600060c0820190506123da600083018961238c565b6123e760208301886120cc565b6123f460408301876120cc565b612401606083018661238c565b61240e60808301856123b6565b61241b60a08301846120cc565b979650505050505050565b6000819050919050565b61243981612426565b811461244457600080fd5b50565b60008135905061245681612430565b92915050565b60006020828403121561247257612471612100565b5b600061248084828501612447565b91505092915050565b600060c08201905061249e600083018961238c565b6124ab602083018861238c565b6124b860408301876120cc565b6124c560608301866120cc565b6124d260808301856120cc565b6124df60a08301846123b6565b979650505050505050565b6000806000806080858703121561250457612503612100565b5b60006125128782880161223a565b94505060206125238782880161223a565b935050604061253487828801612121565b925050606061254587828801612121565b91505092959194509250565b600080fd5b600080fd5b6000601f19601f8301169050919050565b7f4e487b7100000000000000000000000000000000000000000000000000000000600052604160045260246000fd5b6125a48261255b565b810181811067ffffffffffffffff821117156125c3576125c261256c565b5b80604052505050565b60006125d66120f6565b90506125e2828261259b565b919050565b600067ffffffffffffffff8211156126025761260161256c565b5b61260b8261255b565b9050602081019050919050565b82818337600083830152505050565b600061263a612635846125e7565b6125cc565b90508281526020810184848401111561265657612655612556565b5b612661848285612618565b509392505050565b600082601f83011261267e5761267d612551565b5b813561268e848260208601612627565b91505092915050565b600060ff82169050919050565b6126ad81612697565b81146126b857600080fd5b50565b6000813590506126ca816126a4565b92915050565b6000806000606084860312156126e9576126e8612100565b5b60006126f78682870161223a565b935050602084013567ffffffffffffffff81111561271857612717612105565b5b61272486828701612669565b9250506040612735868287016126bb565b9150509250925092565b60006020828403121561275557612754612100565b5b60006127638482850161223a565b91505092915050565b600081519050919050565b600082825260208201905092915050565b60005b838110156127a657808201518184015260208101905061278b565b60008484015250505050565b60006127bd8261276c565b6127c78185612777565b93506127d7818560208601612788565b6127e08161255b565b840191505092915050565b6127f481612697565b82525050565b600060a08201905061280f600083018861238c565b818103602083015261282181876127b2565b905061283060408301866127eb565b61283d60608301856123b6565b61284a60808301846120cc565b9695505050505050565b7f496e76616c696420616d6f756e74000000000000000000000000000000000000600082015250565b600061288a600e83612777565b915061289582612854565b602082019050919050565b600060208201905081810360008301526128b98161287d565b9050919050565b7f496e76616c696420726563697069656e74000000000000000000000000000000600082015250565b60006128f6601183612777565b9150612901826128c0565b602082019050919050565b60006020820190508181036000830152612925816128e9565b9050919050565b7f4e487b7100000000000000000000000000000000000000000000000000000000600052601160045260246000fd5b6000612966826120c2565b91507fffffffffffffffffffffffffffffffffffffffffffffffffffffffffffffffff82036129985761299761292c565b5b600182019050919050565b60006060820190506129b8600083018661238c565b6129c5602083018561238c565b6129d260408301846120cc565b949350505050565b6129e381612172565b81146129ee57600080fd5b50565b600081519050612a00816129da565b92915050565b600060208284031215612a1c57612a1b612100565b5b6000612a2a848285016129f1565b91505092915050565b7f496e73756666696369656e74204b44412073656e740000000000000000000000600082015250565b6000612a69601583612777565b9150612a7482612a33565b602082019050919050565b60006020820190508181036000830152612a9881612a5c565b9050919050565b6000604082019050612ab460008301856120cc565b612ac160208301846120cc565b9392505050565b60008160601b9050919050565b6000612ae082612ac8565b9050919050565b6000612af282612ad5565b9050919050565b612b0a612b0582611ffc565b612ae7565b82525050565b6000612b1c8285612af9565b601482019150612b2c8284612af9565b6014820191508190509392505050565b7f42726964676520616c72656164792070726f6365737365640000000000000000600082015250565b6000612b72601883612777565b9150612b7d82612b3c565b602082019050919050565b60006020820190508181036000830152612ba181612b65565b9050919050565b6000612bb3826120c2565b9150612bbe836120c2565b9250828201905080821115612bd657612bd561292c565b5b92915050565b7f427269646765206e6f7420726561647900000000000000000000000000000000600082015250565b6000612c12601083612777565b9150612c1d82612bdc565b602082019050919050565b60006020820190508181036000830152612c4181612c05565b9050919050565b7f546f6b656e2041206e6f74206163746976650000000000000000000000000000600082015250565b6000612c7e601283612777565b9150612c8982612c48565b602082019050919050565b60006020820190508181036000830152612cad81612c71565b9050919050565b7f546f6b656e2042206e6f74206163746976650000000000000000000000000000600082015250565b6000612cea601283612777565b9150612cf582612cb4565b602082019050919050565b60006020820190508181036000830152612d1981612cdd565b9050919050565b7f496e76616c696420616d6f756e74730000000000000000000000000000000000600082015250565b6000612d56600f83612777565b9150612d6182612d20565b602082019050919050565b60006020820190508181036000830152612d8581612d49565b9050919050565b7f50616972206e6f74206163746976650000000000000000000000000000000000600082015250565b6000612dc2600f83612777565b9150612dcd82612d8c565b602082019050919050565b60006020820190508181036000830152612df181612db5565b9050919050565b6000612e03826120c2565b9150612e0e836120c2565b9250828202612e1c816120c2565b91508282048414831517612e3357612e3261292c565b5b5092915050565b7f4e487b7100000000000000000000000000000000000000000000000000000000600052601260045260246000fd5b6000612e74826120c2565b9150612e7f836120c2565b925082612e8f57612e8e612e3a565b5b828204905092915050565b7f496e76616c696420746f6b656e20616464726573730000000000000000000000600082015250565b6000612ed0601583612777565b9150612edb82612e9a565b602082019050919050565b60006020820190508181036000830152612eff81612ec3565b9050919050565b7f546f6b656e20616c726561647920616464656400000000000000000000000000600082015250565b6000612f3c601383612777565b9150612f4782612f06565b602082019050919050565b60006020820190508181036000830152612f6b81612f2f565b9050919050565b7f4e487b7100000000000000000000000000000000000000000000000000000000600052602260045260246000fd5b60006002820490506001821680612fb957607f821691505b602082108103612fcc57612fcb612f72565b5b50919050565b60008190508160005260206000209050919050565b60006020601f8301049050919050565b600082821b905092915050565b6000600883026130347fffffffffffffffffffffffffffffffffffffffffffffffffffffffffffffffff82612ff7565b61303e8683612ff7565b95508019841693508086168417925050509392505050565b6000819050919050565b600061307b613076613071846120c2565b613056565b6120c2565b9050919050565b6000819050919050565b61309583613060565b6130a96130a182613082565b848454613004565b825550505050565b600090565b6130be6130b1565b6130c981848461308c565b505050565b5b818110156130ed576130e26000826130b6565b6001810190506130cf565b5050565b601f8211156131325761310381612fd2565b61310c84612fe7565b8101602085101561311b578190505b61312f61312785612fe7565b8301826130ce565b50505b505050565b600082821c905092915050565b600061315560001984600802613137565b1980831691505092915050565b600061316e8383613144565b9150826002028217905092915050565b6131878261276c565b67ffffffffffffffff8111156131a05761319f61256c565b5b6131aa8254612fa1565b6131b58282856130f1565b600060209050601f8311600181146131e857600084156131d6578287015190505b6131e08582613162565b865550613248565b601f1984166131f686612fd2565b60005b8281101561321e578489015182556001820191506020850194506020810190506131f9565b8683101561323b5784890151613237601f891682613144565b8355505b6001600288020188555050505b505050505050565b6000604082019050818103600083015261326a81856127b2565b905061327960208301846127eb565b9392505050565b7f4f776e61626c653a206e6577206f776e657220697320746865207a65726f206160008201527f6464726573730000000000000000000000000000000000000000000000000000602082015250565b60006132dc602683612777565b91506132e782613280565b604082019050919050565b6000602082019050818103600083015261330b816132cf565b9050919050565b7f53616d6520746f6b656e00000000000000000000000000000000000000000000600082015250565b6000613348600a83612777565b915061335382613312565b602082019050919050565b600060208201905081810360008301526133778161333b565b9050919050565b6000613389826120c2565b9150613394836120c2565b92508282039050818111156133ac576133ab61292c565b5b92915050565b7f496e73756666696369656e74206f757470757420616d6f756e74000000000000600082015250565b60006133e8601a83612777565b91506133f3826133b2565b602082019050919050565b60006020820190508181036000830152613417816133db565b9050919050565b6000604082019050613433600083018561238c565b61344060208301846120cc565b9392505050565b7f4f776e61626c653a2063616c6c6572206973206e6f7420746865206f776e6572600082015250565b600061347d602083612777565b915061348882613447565b602082019050919050565b600060208201905081810360008301526134ac81613470565b9050919050565b7f5265656e7472616e637947756172643a207265656e7472616e742063616c6c00600082015250565b60006134e9601f83612777565b91506134f4826134b3565b602082019050919050565b60006020820190508181036000830152613518816134dc565b905091905056fea26469706673582212208d2b533a1dff4f61deeef8e108121e495366678cf0eb21ad76203df9c1f3cf9064736f6c634300081c0033",
  "linkReferences": {},
  "deployedLinkReferences": {}
}