{
  "_format": "hh-sol-artifact-1",
  "contractName": "KadenaDEX",
  "sourceName": "contracts/KadenaDEX.sol",
  "abi": [
    {
      "anonymous": false,
      "inputs": [
        {
          "indexed": true,
          "internalType": "uint256",
          "name": "bridgeId",
          "type": "uint256"
        }
      ],
      "name": "BridgeCompleted",
      "type": "event"
    },
    {
      "anonymous": false,
      "inputs": [
        {
          "indexed": true,
          "internalType": "uint256",
          "name": "bridgeId",
          "type": "uint256"
        },
        {
          "indexed": true,
          "internalType": "address",
          "name": "token",
          "type": "address"
        },
        {
          "indexed": false,
          "internalType": "uint256",
          "name": "amount",
          "type": "uint256"
        },
        {
          "indexed": false,
          "internalType": "uint256",
          "name": "targetChainId",
          "type": "uint256"
        },
        {
          "indexed": true,
          "internalType": "address",
          "name": "recipient",
          "type": "address"
        }
      ],
      "name": "BridgeInitiated",
      "type": "event"
    },
    {
      "anonymous": false,
      "inputs": [
        {
          "indexed": true,
          "internalType": "address",
          "name": "tokenA",
          "type": "address"
        },
        {
          "indexed": true,
          "internalType": "address",
          "name": "tokenB",
          "type": "address"
        },
        {
          "indexed": false,
          "internalType": "uint256",
          "name": "amountA",
          "type": "uint256"
        },
        {
          "indexed": false,
          "internalType": "uint256",
          "name": "amountB",
          "type": "uint256"
        },
        {
          "indexed": true,
          "internalType": "address",
          "name": "provider",
          "type": "address"
        }
      ],
      "name": "LiquidityAdded",
      "type": "event"
    },
    {
      "anonymous": false,
      "inputs": [
        {
          "indexed": true,
          "internalType": "address",
          "name": "previousOwner",
          "type": "address"
        },
        {
          "indexed": true,
          "internalType": "address",
          "name": "newOwner",
          "type": "address"
        }
      ],
      "name": "OwnershipTransferred",
      "type": "event"
    },
    {
      "anonymous": false,
      "inputs": [
        {
          "indexed": true,
          "internalType": "address",
          "name": "tokenIn",
          "type": "address"
        },
        {
          "indexed": true,
          "internalType": "address",
          "name": "tokenOut",
          "type": "address"
        },
        {
          "indexed": false,
          "internalType": "uint256",
          "name": "amountIn",
          "type": "uint256"
        },
        {
          "indexed": false,
          "internalType": "uint256",
          "name": "amountOut",
          "type": "uint256"
        },
        {
          "indexed": true,
          "internalType": "address",
          "name": "user",
          "type": "address"
        }
      ],
      "name": "SwapExecuted",
      "type": "event"
    },
    {
      "anonymous": false,
      "inputs": [
        {
          "indexed": true,
          "internalType": "address",
          "name": "token",
          "type": "address"
        },
        {
          "indexed": false,
          "internalType": "string",
          "name": "symbol",
          "type": "string"
        },
        {
          "indexed": false,
          "internalType": "uint8",
          "name": "decimals",
          "type": "uint8"
        }
      ],
      "name": "TokenAdded",
      "type": "event"
    },
    {
      "inputs": [
        {
          "internalType": "address",
          "name": "tokenA",
          "type": "address"
        },
        {
          "internalType": "address",
          "name": "tokenB",
          "type": "address"
        },
        {
          "internalType": "uint256",
          "name": "amountA",
          "type": "uint256"
        },
        {
          "internalType": "uint256",
          "name": "amountB",
          "type": "uint256"
        }
      ],
      "name": "addLiquidity",
      "outputs": [],
      "stateMutability": "payable",
      "type": "function"
    },
    {
      "inputs": [
        {
          "internalType": "address",
          "name": "tokenAddress",
          "type": "address"
        },
        {
          "internalType": "string",
          "name": "symbol",
          "type": "string"
        },
        {
          "internalType": "uint8",
          "name": "decimals",
          "type": "uint8"
        }
      ],
      "name": "addToken",
      "outputs": [],
      "stateMutability": "nonpayable",
      "type": "function"
    },
    {
      "inputs": [],
      "name": "bridgeCounter",
      "outputs": [
        {
          "internalType": "uint256",
          "name": "",
          "type": "uint256"
        }
      ],
      "stateMutability": "view",
      "type": "function"
    },
    {
      "inputs": [
        {
          "internalType": "uint256",
          "name": "",
          "type": "uint256"
        }
      ],
      "name": "bridges",
      "outputs": [
        {
          "internalType": "address",
          "name": "token",
          "type": "address"
        },
        {
          "internalType": "uint256",
          "name": "amount",
          "type": "uint256"
        },
        {
          "internalType": "uint256",
          "name": "targetChainId",
          "type": "uint256"
        },
        {
          "internalType": "address",
          "name": "recipient",
          "type": "address"
        },
        {
          "internalType": "bool",
          "name": "isProcessed",
          "type": "bool"
        },
        {
          "internalType": "uint256",
          "name": "timestamp",
          "type": "uint256"
        }
      ],
      "stateMutability": "view",
      "type": "function"
    },
    {
      "inputs": [
        {
          "internalType": "uint256",
          "name": "bridgeId",
          "type": "uint256"
        }
      ],
      "name": "completeBridge",
      "outputs": [],
      "stateMutability": "nonpayable",
      "type": "function"
    },
    {
      "inputs": [],
      "name": "getAllTokens",
      "outputs": [
        {
          "internalType": "address[]",
          "name": "tokenAddresses",
          "type": "address[]"
        }
      ],
      "stateMutability": "view",
      "type": "function"
    },
    {
      "inputs": [
        {
          "internalType": "uint256",
          "name": "bridgeId",
          "type": "uint256"
        }
      ],
      "name": "getBridgeInfo",
      "outputs": [
        {
          "components": [
            {
              "internalType": "address",
              "name": "token",
              "type": "address"
            },
            {
              "internalType": "uint256",
              "name": "amount",
              "type": "uint256"
            },
            {
              "internalType": "uint256",
              "name": "targetChainId",
              "type": "uint256"
            },
            {
              "internalType": "address",
              "name": "recipient",
              "type": "address"
            },
            {
              "internalType": "bool",
              "name": "isProcessed",
              "type": "bool"
            },
            {
              "internalType": "uint256",
              "name": "timestamp",
              "type": "uint256"
            }
          ],
          "internalType": "struct KadenaDEX.BridgeInfo",
          "name": "bridge",
          "type": "tuple"
        }
      ],
      "stateMutability": "view",
      "type": "function"
    },
    {
      "inputs": [
        {
          "internalType": "address",
          "name": "tokenA",
          "type": "address"
        },
        {
          "internalType": "address",
          "name": "tokenB",
          "type": "address"
        }
      ],
      "name": "getSwapPair",
      "outputs": [
        {
          "components": [
            {
              "internalType": "address",
              "name": "tokenA",
              "type": "address"
            },
            {
              "internalType": "address",
              "name": "tokenB",
              "type": "address"
            },
            {
              "internalType": "uint256",
              "name": "reserveA",
              "type": "uint256"
            },
            {
              "internalType": "uint256",
              "name": "reserveB",
              "type": "uint256"
            },
            {
              "internalType": "uint256",
              "name": "totalSupply",
              "type": "uint256"
            },
            {
              "internalType": "bool",
              "name": "isActive",
              "type": "bool"
            }
          ],
          "internalType": "struct KadenaDEX.SwapPair",
          "name": "pair",
          "type": "tuple"
        }
      ],
      "stateMutability": "view",
      "type": "function"
    },
    {
      "inputs": [
        {
          "internalType": "address",
          "name": "token",
          "type": "address"
        },
        {
          "internalType": "uint256",
          "name": "amount",
          "type": "uint256"
        },
        {
          "internalType": "uint256",
          "name": "targetChainId",
          "type": "uint256"
        },
        {
          "internalType": "address",
          "name": "recipient",
          "type": "address"
        }
      ],
      "name": "initiateBridge",
      "outputs": [],
      "stateMutability": "payable",
      "type": "function"
    },
    {
      "inputs": [],
      "name": "owner",
      "outputs": [
        {
          "internalType": "address",
          "name": "",
          "type": "address"
        }
      ],
      "stateMutability": "view",
      "type": "function"
    },
    {
      "inputs": [],
      "name": "renounceOwnership",
      "outputs": [],
      "stateMutability": "nonpayable",
      "type": "function"
    },
    {
      "inputs": [
        {
          "internalType": "address",
          "name": "tokenIn",
          "type": "address"
        },
        {
          "internalType": "address",
          "name": "tokenOut",
          "type": "address"
        },
        {
          "internalType": "uint256",
          "name": "amountIn",
          "type": "uint256"
        },
        {
          "internalType": "uint256",
          "name": "minAmountOut",
          "type": "uint256"
        }
      ],
      "name": "swap",
      "outputs": [],
      "stateMutability": "payable",
      "type": "function"
    },
    {
      "inputs": [
        {
          "internalType": "bytes32",
          "name": "",
          "type": "bytes32"
        }
      ],
      "name": "swapPairs",
      "outputs": [
        {
          "internalType": "address",
          "name": "tokenA",
          "type": "address"
        },
        {
          "internalType": "address",
          "name": "tokenB",
          "type": "address"
        },
        {
          "internalType": "uint256",
          "name": "reserveA",
          "type": "uint256"
        },
        {
          "internalType": "uint256",
          "name": "reserveB",
          "type": "uint256"
        },
        {
          "internalType": "uint256",
          "name": "totalSupply",
          "type": "uint256"
        },
        {
          "internalType": "bool",
          "name": "isActive",
          "type": "bool"
        }
      ],
      "stateMutability": "view",
      "type": "function"
    },
    {
      "inputs": [
        {
          "internalType": "uint256",
          "name": "",
          "type": "uint256"
        }
      ],
      "name": "tokenList",
      "outputs": [
        {
          "internalType": "address",
          "name": "",
          "type": "address"
        }
      ],
      "stateMutability": "view",
      "type": "function"
    },
    {
      "inputs": [
        {
          "internalType": "address",
          "name": "",
          "type": "address"
        }
      ],
      "name": "tokens",
      "outputs": [
        {
          "internalType": "address",
          "name": "tokenAddress",
          "type": "address"
        },
        {
          "internalType": "string",
          "name": "symbol",
          "type": "string"
        },
        {
          "internalType": "uint8",
          "name": "decimals",
          "type": "uint8"
        },
        {
          "internalType": "bool",
          "name": "isActive",
          "type": "bool"
        },
        {
          "internalType": "uint256",
          "name": "totalLiquidity",
          "type": "uint256"
        }
      ],
      "stateMutability": "view",
      "type": "function"
    },
    {
      "inputs": [
        {
          "internalType": "address",
          "name": "newOwner",
          "type": "address"
        }
      ],
      "name": "transferOwnership",
      "outputs": [],
      "stateMutability": "nonpayable",
      "type": "function"
    },
    {
      "stateMutability": "payable",
      "type": "receive"
    }
  ],
  "bytecode": "0x608060405234801561001057600080fd5b5061001a33610023565b60018055610073565b600080546001600160a01b038381166001600160a01b0319831681178455604051919092169283917f8be0079c531659141344cd1fd0a4f28419497f9722a3daafe3b4186f6b6457e09190a35050565b611c64806100826000396000f3fe6080604052600436106100f75760003560e01c80639ead72221161008a578063de6a48e511610059578063de6a48e5146104c2578063e4860339146104e2578063f2fde38b14610513578063fe0291561461053357600080fd5b80639ead722214610354578063a3c4470514610374578063a833fc4314610415578063cf6c62ea146104af57600080fd5b80637d1c0300116100c65780637d1c0300146102785780637dbbd71d1461028b5780637f6316b6146103025780638da5cb5b1461032257600080fd5b80632a5c792a1461010357806350c748431461012e57806351145aed14610152578063715018a61461026157600080fd5b366100fe57005b600080fd5b34801561010f57600080fd5b50610118610546565b60405161012591906116b4565b60405180910390f35b34801561013a57600080fd5b5061014460065481565b604051908152602001610125565b34801561015e57600080fd5b5061020a61016d366004611701565b6040805160c081018252600080825260208201819052918101829052606081018290526080810182905260a081019190915250600090815260046020818152604092839020835160c08101855281546001600160a01b03908116825260018301549382019390935260028201549481019490945260038101549182166060850152600160a01b90910460ff1615156080840152015460a082015290565b604051610125919081516001600160a01b03908116825260208084015190830152604080840151908301526060808401519091169082015260808083015115159082015260a0918201519181019190915260c00190565b34801561026d57600080fd5b506102766105a8565b005b610276610286366004611736565b6105bc565b34801561029757600080fd5b506102ab6102a636600461177c565b61080e565b604051610125919081516001600160a01b0390811682526020808401519091169082015260408083015190820152606080830151908201526080808301519082015260a09182015115159181019190915260c00190565b34801561030e57600080fd5b5061027661031d366004611701565b6108d4565b34801561032e57600080fd5b506000546001600160a01b03165b6040516001600160a01b039091168152602001610125565b34801561036057600080fd5b5061033c61036f366004611701565b6109dd565b34801561038057600080fd5b506103d761038f366004611701565b6004602081905260009182526040909120805460018201546002830154600384015493909401546001600160a01b039283169491939192821691600160a01b900460ff169086565b604080516001600160a01b039788168152602081019690965285019390935293166060830152911515608082015260a081019190915260c001610125565b34801561042157600080fd5b50610475610430366004611701565b60036020819052600091825260409091208054600182015460028301549383015460048401546005909401546001600160a01b03938416959390921693909160ff1686565b604080516001600160a01b0397881681529690951660208701529385019290925260608401526080830152151560a082015260c001610125565b6102766104bd3660046117af565b610a07565b3480156104ce57600080fd5b506102766104dd366004611818565b610e81565b3480156104ee57600080fd5b506105026104fd3660046118ea565b611076565b604051610125959493929190611952565b34801561051f57600080fd5b5061027661052e3660046118ea565b61113e565b6102766105413660046117af565b6111b7565b6060600580548060200260200160405190810160405280929190818152602001828054801561059e57602002820191906000526020600020905b81546001600160a01b03168152600190910190602001808311610580575b5050505050905090565b6105b06115b1565b6105ba600061160b565b565b6105c461165b565b6000831161060a5760405162461bcd60e51b815260206004820152600e60248201526d125b9d985b1a5908185b5bdd5b9d60921b60448201526064015b60405180910390fd5b6001600160a01b0381166106545760405162461bcd60e51b8152602060048201526011602482015270125b9d985b1a59081c9958da5c1a595b9d607a1b6044820152606401610601565b60068054906000610664836119ac565b90915550506040805160c0810182526001600160a01b038087168083526020808401888152848601888152878516606087019081526000608088018181524260a08a01908152600654835260049687905299909120975188549088166001600160a01b031990911617885592516001880155905160028701555160038601805492511515600160a01b026001600160a81b0319909316919095161717909255925191015515610786576040516323b872dd60e01b81526001600160a01b038516906323b872dd9061073d903390309088906004016119c5565b6020604051808303816000875af115801561075c573d6000803e3d6000fd5b505050506040513d601f19601f8201168201806040525081019061078091906119e9565b506107a6565b823410156107a65760405162461bcd60e51b815260040161060190611a0b565b806001600160a01b0316846001600160a01b03166006547f9fc29e8b45fed99b44e29431e60ab6dfd85c5dfab98aeea5d5bc8de8591b1e7f86866040516107f7929190918252602082015260400190565b60405180910390a461080860018055565b50505050565b6040805160c081018252600080825260208201819052918101829052606081018290526080810182905260a081019190915260008383604051602001610855929190611a3a565b60408051601f198184030181528282528051602091820120600090815260038083529083902060c08501845280546001600160a01b03908116865260018201541692850192909252600282015492840192909252908101546060830152600481015460808301526005015460ff16151560a08201529150505b92915050565b6108dc6115b1565b60008181526004602052604090206003810154600160a01b900460ff16156109465760405162461bcd60e51b815260206004820152601860248201527f42726964676520616c72656164792070726f63657373656400000000000000006044820152606401610601565b600481015461095790610e10611a61565b4210156109995760405162461bcd60e51b815260206004820152601060248201526f427269646765206e6f7420726561647960801b6044820152606401610601565b60038101805460ff60a01b1916600160a01b17905560405182907fb43ef863cae2fe0510eb9abbbcfa3d2a3794edcec07628318d5a04f4a3adf9cc90600090a25050565b600581815481106109ed57600080fd5b6000918252602090912001546001600160a01b0316905081565b610a0f61165b565b6001600160a01b03841660009081526002602081905260409091200154610100900460ff16610a755760405162461bcd60e51b8152602060048201526012602482015271546f6b656e2041206e6f742061637469766560701b6044820152606401610601565b6001600160a01b03831660009081526002602081905260409091200154610100900460ff16610adb5760405162461bcd60e51b8152602060048201526012602482015271546f6b656e2042206e6f742061637469766560701b6044820152606401610601565b600082118015610aeb5750600081115b610b295760405162461bcd60e51b815260206004820152600f60248201526e496e76616c696420616d6f756e747360881b6044820152606401610601565b60008484604051602001610b3e929190611a3a565b60408051601f1981840301815291815281516020928301206000818152600390935291208054919250906001600160a01b0316610bd05780546001600160a01b038088166001600160a01b031992831617835560018084018054928916929093169190911790915560028201859055600382018490556103e8600483015560058201805460ff19169091179055610c9f565b600581015460ff16610c165760405162461bcd60e51b815260206004820152600f60248201526e50616972206e6f742061637469766560881b6044820152606401610601565b60008160030154826002015485610c2d9190611a74565b610c379190611a8b565b9050848111610c4857809450610c69565b60028201546003830154610c5c9087611a74565b610c669190611a8b565b93505b84826002016000828254610c7d9190611a61565b9250508190555083826003016000828254610c989190611a61565b9091555050505b6001600160a01b03861615610d27576040516323b872dd60e01b81526001600160a01b038716906323b872dd90610cde903390309089906004016119c5565b6020604051808303816000875af1158015610cfd573d6000803e3d6000fd5b505050506040513d601f19601f82011682018060405250810190610d2191906119e9565b50610d47565b83341015610d475760405162461bcd60e51b815260040161060190611a0b565b6001600160a01b03851615610dcb576040516323b872dd60e01b81526001600160a01b038616906323b872dd90610d86903390309088906004016119c5565b6020604051808303816000875af1158015610da5573d6000803e3d6000fd5b505050506040513d601f19601f82011682018060405250810190610dc991906119e9565b505b6001600160a01b03861660009081526002602052604081206003018054869290610df6908490611a61565b90915550506001600160a01b03851660009081526002602052604081206003018054859290610e26908490611a61565b9091555050604080518581526020810185905233916001600160a01b0388811692908a16917f6c663e88dcc86a651e6a0758b9902b496aa7e7a85977182c8fac129a8ad15ed3910160405180910390a4505061080860018055565b610e896115b1565b6001600160a01b038316610ed75760405162461bcd60e51b8152602060048201526015602482015274496e76616c696420746f6b656e206164647265737360581b6044820152606401610601565b6001600160a01b03831660009081526002602081905260409091200154610100900460ff1615610f3f5760405162461bcd60e51b8152602060048201526013602482015272151bdad95b88185b1c9958591e481859191959606a1b6044820152606401610601565b6040805160a0810182526001600160a01b03858116808352602080840187815260ff871685870152600160608601819052600060808701819052938452600290925294909120835181546001600160a01b031916931692909217825592519192909190820190610faf9082611b36565b50604082810151600283018054606086015115156101000261ffff1990911660ff90931692909217919091179055608090920151600390910155600580546001810182556000919091527f036b6384b5eca791c62761152d0c79bb0604c104a5fb6f4eb0703f3154bb3db00180546001600160a01b0386166001600160a01b0319909116811790915590517f3be0896d4cd1d645bdae8ade25a54bcdbb2c685ce55ac7e7bead95d0802b32de906110699085908590611bf6565b60405180910390a2505050565b600260205260009081526040902080546001820180546001600160a01b0390921692916110a290611aad565b80601f01602080910402602001604051908101604052809291908181526020018280546110ce90611aad565b801561111b5780601f106110f05761010080835404028352916020019161111b565b820191906000526020600020905b8154815290600101906020018083116110fe57829003601f168201915b505050506002830154600390930154919260ff8082169361010090920416915085565b6111466115b1565b6001600160a01b0381166111ab5760405162461bcd60e51b815260206004820152602660248201527f4f776e61626c653a206e6577206f776e657220697320746865207a65726f206160448201526564647265737360d01b6064820152608401610601565b6111b48161160b565b50565b6111bf61165b565b600082116112005760405162461bcd60e51b815260206004820152600e60248201526d125b9d985b1a5908185b5bdd5b9d60921b6044820152606401610601565b826001600160a01b0316846001600160a01b03160361124e5760405162461bcd60e51b815260206004820152600a60248201526929b0b6b2903a37b5b2b760b11b6044820152606401610601565b60008484604051602001611263929190611a3a565b60408051601f19818403018152918152815160209283012060008181526003909352912060058101549192509060ff166112d15760405162461bcd60e51b815260206004820152600f60248201526e50616972206e6f742061637469766560881b6044820152606401610601565b80546000906001600160a01b0380891691160361134d578482600201546112f89190611a61565b60038301546113079087611a74565b6113119190611a8b565b9050848260020160008282546113279190611a61565b92505081905550808260030160008282546113429190611c1b565b909155506113ad9050565b84826003015461135d9190611a61565b600283015461136c9087611a74565b6113769190611a8b565b90508482600301600082825461138c9190611a61565b92505081905550808260020160008282546113a79190611c1b565b90915550505b838110156113fd5760405162461bcd60e51b815260206004820152601a60248201527f496e73756666696369656e74206f757470757420616d6f756e740000000000006044820152606401610601565b6001600160a01b03871615611485576040516323b872dd60e01b81526001600160a01b038816906323b872dd9061143c90339030908a906004016119c5565b6020604051808303816000875af115801561145b573d6000803e3d6000fd5b505050506040513d601f19601f8201168201806040525081019061147f91906119e9565b506114a5565b843410156114a55760405162461bcd60e51b815260040161060190611a0b565b6001600160a01b0386161561152b5760405163a9059cbb60e01b8152336004820152602481018290526001600160a01b0387169063a9059cbb906044016020604051808303816000875af1158015611501573d6000803e3d6000fd5b505050506040513d601f19601f8201168201806040525081019061152591906119e9565b5061155a565b604051339082156108fc029083906000818181858888f19350505050158015611558573d6000803e3d6000fd5b505b604080518681526020810183905233916001600160a01b0389811692908b16917fee4825a7988c5519a874be79f2a84d13d02cfe5f74cad97cda2d5b55d2b13bfa910160405180910390a450505061080860018055565b6000546001600160a01b031633146105ba5760405162461bcd60e51b815260206004820181905260248201527f4f776e61626c653a2063616c6c6572206973206e6f7420746865206f776e65726044820152606401610601565b600080546001600160a01b038381166001600160a01b0319831681178455604051919092169283917f8be0079c531659141344cd1fd0a4f28419497f9722a3daafe3b4186f6b6457e09190a35050565b6002600154036116ad5760405162461bcd60e51b815260206004820152601f60248201527f5265656e7472616e637947756172643a207265656e7472616e742063616c6c006044820152606401610601565b6002600155565b6020808252825182820181905260009190848201906040850190845b818110156116f55783516001600160a01b0316835292840192918401916001016116d0565b50909695505050505050565b60006020828403121561171357600080fd5b5035919050565b80356001600160a01b038116811461173157600080fd5b919050565b6000806000806080858703121561174c57600080fd5b6117558561171a565b935060208501359250604085013591506117716060860161171a565b905092959194509250565b6000806040838503121561178f57600080fd5b6117988361171a565b91506117a66020840161171a565b90509250929050565b600080600080608085870312156117c557600080fd5b6117ce8561171a565b93506117dc6020860161171a565b93969395505050506040820135916060013590565b634e487b7160e01b600052604160045260246000fd5b803560ff8116811461173157600080fd5b60008060006060848603121561182d57600080fd5b6118368461171a565b9250602084013567ffffffffffffffff8082111561185357600080fd5b818601915086601f83011261186757600080fd5b813581811115611879576118796117f1565b604051601f8201601f19908116603f011681019083821181831017156118a1576118a16117f1565b816040528281528960208487010111156118ba57600080fd5b8260208601602083013760006020848301015280965050505050506118e160408501611807565b90509250925092565b6000602082840312156118fc57600080fd5b6119058261171a565b9392505050565b6000815180845260005b8181101561193257602081850181015186830182015201611916565b506000602082860101526020601f19601f83011685010191505092915050565b6001600160a01b038616815260a0602082018190526000906119769083018761190c565b60ff95909516604083015250911515606083015260809091015292915050565b634e487b7160e01b600052601160045260246000fd5b6000600182016119be576119be611996565b5060010190565b6001600160a01b039384168152919092166020820152604081019190915260600190565b6000602082840312156119fb57600080fd5b8151801515811461190557600080fd5b602080825260159082015274125b9cdd59999a58da595b9d0812d110481cd95b9d605a1b604082015260600190565b6bffffffffffffffffffffffff19606093841b811682529190921b16601482015260280190565b808201808211156108ce576108ce611996565b80820281158282048414176108ce576108ce611996565b600082611aa857634e487b7160e01b600052601260045260246000fd5b500490565b600181811c90821680611ac157607f821691505b602082108103611ae157634e487b7160e01b600052602260045260246000fd5b50919050565b601f821115611b3157600081815260208120601f850160051c81016020861015611b0e5750805b601f850160051c820191505b81811015611b2d57828155600101611b1a565b5050505b505050565b815167ffffffffffffffff811115611b5057611b506117f1565b611b6481611b5e8454611aad565b84611ae7565b602080601f831160018114611b995760008415611b815750858301515b600019600386901b1c1916600185901b178555611b2d565b600085815260208120601f198616915b82811015611bc857888601518255948401946001909101908401611ba9565b5085821015611be65787850151600019600388901b60f8161c191681555b5050505050600190811b01905550565b604081526000611c09604083018561190c565b905060ff831660208301529392505050565b818103818111156108ce576108ce61199656fea2646970667358221220a568aeee4325bb155295782bd323eec651c01fe11bac8ebd1978099225040d3864736f6c63430008130033",
  "linkReferences": {},
  "deployedLinkReferences": {}
}